{
  "contractName": "CapTables",
  "abi": [
    {
      "constant": true,
      "inputs": [
        {
          "name": "",
          "type": "uint256"
        }
      ],
      "name": "totalSupply",
      "outputs": [
        {
          "name": "",
          "type": "uint256"
        }
      ],
      "payable": false,
      "stateMutability": "view",
      "type": "function"
    },
    {
      "constant": true,
      "inputs": [
        {
          "name": "",
          "type": "uint256"
        },
        {
          "name": "",
          "type": "address"
        }
      ],
      "name": "capTable",
      "outputs": [
        {
          "name": "",
          "type": "uint256"
        }
      ],
      "payable": false,
      "stateMutability": "view",
      "type": "function"
    },
    {
      "constant": true,
      "inputs": [
        {
          "name": "",
          "type": "uint256"
        }
      ],
      "name": "addresses",
      "outputs": [
        {
          "name": "",
          "type": "address"
        }
      ],
      "payable": false,
      "stateMutability": "view",
      "type": "function"
    },
    {
      "constant": true,
      "inputs": [
        {
          "name": "security",
          "type": "uint256"
        },
        {
          "name": "user",
          "type": "address"
        }
      ],
      "name": "balanceOf",
      "outputs": [
        {
          "name": "",
          "type": "uint256"
        }
      ],
      "payable": false,
      "stateMutability": "view",
      "type": "function"
    },
    {
      "constant": false,
      "inputs": [
        {
          "name": "supply",
          "type": "uint256"
        }
      ],
      "name": "initialize",
      "outputs": [
        {
          "name": "",
          "type": "uint256"
        }
      ],
      "payable": false,
      "stateMutability": "nonpayable",
      "type": "function"
    },
    {
      "constant": false,
      "inputs": [
        {
          "name": "security",
          "type": "uint256"
        },
        {
          "name": "newAddress",
          "type": "address"
        }
      ],
      "name": "migrate",
      "outputs": [],
      "payable": false,
      "stateMutability": "nonpayable",
      "type": "function"
    },
    {
      "constant": false,
      "inputs": [
        {
          "name": "security",
          "type": "uint256"
        },
        {
          "name": "src",
          "type": "address"
        },
        {
          "name": "dest",
          "type": "address"
        },
        {
          "name": "amount",
          "type": "uint256"
        }
      ],
      "name": "transfer",
      "outputs": [],
      "payable": false,
      "stateMutability": "nonpayable",
      "type": "function"
    }
  ],
  "bytecode": "0x60806040526000805534801561001457600080fd5b50610776806100246000396000f300608060405260043610610083576000357c0100000000000000000000000000000000000000000000000000000000900463ffffffff1680633656eec21461008857806336cd52a6146100e9578063405b84fa14610160578063bd85b039146101ad578063c0a9ac52146101ee578063edf26d9b1461024f578063fe4b84df146102bc575b600080fd5b34801561009457600080fd5b506100d360048036038101908080359060200190929190803573ffffffffffffffffffffffffffffffffffffffff1690602001909291905050506102fd565b6040518082815260200191505060405180910390f35b3480156100f557600080fd5b5061015e60048036038101908080359060200190929190803573ffffffffffffffffffffffffffffffffffffffff169060200190929190803573ffffffffffffffffffffffffffffffffffffffff16906020019092919080359060200190929190505050610358565b005b34801561016c57600080fd5b506101ab60048036038101908080359060200190929190803573ffffffffffffffffffffffffffffffffffffffff1690602001909291905050506104f2565b005b3480156101b957600080fd5b506101d8600480360381019080803590602001909291905050506105b5565b6040518082815260200191505060405180910390f35b3480156101fa57600080fd5b5061023960048036038101908080359060200190929190803573ffffffffffffffffffffffffffffffffffffffff1690602001909291905050506105cd565b6040518082815260200191505060405180910390f35b34801561025b57600080fd5b5061027a600480360381019080803590602001909291905050506105f2565b604051808273ffffffffffffffffffffffffffffffffffffffff1673ffffffffffffffffffffffffffffffffffffffff16815260200191505060405180910390f35b3480156102c857600080fd5b506102e760048036038101908080359060200190929190505050610625565b6040518082815260200191505060405180910390f35b60006002600084815260200190815260200160002060008373ffffffffffffffffffffffffffffffffffffffff1673ffffffffffffffffffffffffffffffffffffffff16815260200190815260200160002054905092915050565b6001600085815260200190815260200160002060009054906101000a900473ffffffffffffffffffffffffffffffffffffffff1673ffffffffffffffffffffffffffffffffffffffff163373ffffffffffffffffffffffffffffffffffffffff161415156103c557600080fd5b806002600086815260200190815260200160002060008573ffffffffffffffffffffffffffffffffffffffff1673ffffffffffffffffffffffffffffffffffffffff168152602001908152602001600020541015151561042457600080fd5b610487816002600087815260200190815260200160002060008673ffffffffffffffffffffffffffffffffffffffff1673ffffffffffffffffffffffffffffffffffffffff168152602001908152602001600020546106fa90919063ffffffff16565b506104eb816002600087815260200190815260200160002060008573ffffffffffffffffffffffffffffffffffffffff1673ffffffffffffffffffffffffffffffffffffffff1681526020019081526020016000205461071390919063ffffffff16565b5050505050565b6001600083815260200190815260200160002060009054906101000a900473ffffffffffffffffffffffffffffffffffffffff1673ffffffffffffffffffffffffffffffffffffffff163373ffffffffffffffffffffffffffffffffffffffff1614151561055f57600080fd5b806001600084815260200190815260200160002060006101000a81548173ffffffffffffffffffffffffffffffffffffffff021916908373ffffffffffffffffffffffffffffffffffffffff1602179055505050565b60036020528060005260406000206000915090505481565b6002602052816000526040600020602052806000526040600020600091509150505481565b60016020528060005260406000206000915054906101000a900473ffffffffffffffffffffffffffffffffffffffff1681565b60008061063061072f565b9050336001600083815260200190815260200160002060006101000a81548173ffffffffffffffffffffffffffffffffffffffff021916908373ffffffffffffffffffffffffffffffffffffffff160217905550826002600083815260200190815260200160002060003373ffffffffffffffffffffffffffffffffffffffff1673ffffffffffffffffffffffffffffffffffffffff1681526020019081526020016000208190555082600360008381526020019081526020016000208190555080915050919050565b600082821115151561070857fe5b818303905092915050565b6000818301905082811015151561072657fe5b80905092915050565b600080600054905060016000540160008190555080915050905600a165627a7a72305820675f816a5f59987ba99018fdb89110fcf0554ae3ff42ef784c9f8ba81161e69c0029",
  "source": "pragma solidity ^0.4.18;\n\nimport \"./IndexConsumer.sol\";\nimport \"./zeppelin-solidity/contracts/math/SafeMath.sol\";\nimport \"./interfaces/ICapTables.sol\";\n\n/**\n * @title CapTables\n * @dev The sole purpose of this contract is to store the cap tables of securities\n * created by the OFN system.  We take the position that a security is defined\n * by its cap table and not by its transfer rules.  So a security is\n * represented by a unique integer index.  A security has a fixed amount and we\n * preserve this invariant by allowing no other cap table updates beside\n * transfers.\n */\ncontract CapTables is IndexConsumer{\n  using SafeMath for uint256;\n\n  /** Address of security */\n  mapping(uint256 => address) public addresses;\n\n  /** `capTable(security, user) == userBalance` */\n  mapping(uint256 => mapping(address => uint256)) public capTable;\n\n  /** Total token supplies */\n  mapping(uint256 => uint256) public totalSupply;\n\n  /** @dev retrieve the balance at a given address */\n  function balanceOf(uint256 security, address user) public view returns (uint256) {\n    return capTable[security][user];\n  }\n\n  /** @dev Add a security to the contract. */\n  function initialize(uint256 supply) public returns (uint256) {\n    uint256 index = nextIndex();\n    addresses[index] = msg.sender;\n    capTable[index][msg.sender] = supply;\n    totalSupply[index] = supply;\n    return index;\n  }\n\n  /** @dev Migrate a security to a new address, if its transfer restriction rules change. */\n  function migrate(uint256 security, address newAddress) public {\n    require(msg.sender == addresses[security]);\n    addresses[security] = newAddress;\n  }\n\n  /** @dev Transfer an amount of security. */\n  function transfer(uint256 security, address src, address dest, uint256 amount) public {\n    require(msg.sender == addresses[security]);\n    require(capTable[security][src] >= amount);\n    capTable[security][src].sub(amount);\n    capTable[security][dest].add(amount);\n  }\n}\n",
  "sourcePath": "/home/ubuntu/S3Demo/S3Demo/contracts/CapTables.sol",
  "compiler": {
    "name": "solc",
    "version": "0.4.23+commit.124ca40d.Emscripten.clang"
  },
  "schemaVersion": "2.0.0",
  "updatedAt": "2018-06-06T16:05:52.368Z"
}