{
  "contractName": "ForceEther",
  "abi": [
    {
      "inputs": [],
      "payable": true,
      "stateMutability": "payable",
      "type": "constructor"
    },
    {
      "constant": false,
      "inputs": [
        {
          "name": "_recipient",
          "type": "address"
        }
      ],
      "name": "destroyAndSend",
      "outputs": [],
      "payable": false,
      "stateMutability": "nonpayable",
      "type": "function"
    }
  ],
  "bytecode": "0x608060405260c9806100126000396000f300608060405260043610603f576000357c0100000000000000000000000000000000000000000000000000000000900463ffffffff168063f5074f41146044575b600080fd5b348015604f57600080fd5b506082600480360381019080803573ffffffffffffffffffffffffffffffffffffffff1690602001909291905050506084565b005b8073ffffffffffffffffffffffffffffffffffffffff16ff00a165627a7a72305820c2f48c9c41e12313611fd492a58ced1339a94c5d1747609a9ac68d9c22499a120029",
  "source": "pragma solidity ^0.4.23;\n\n\n// @title Force Ether into a contract.\n// @notice  even\n// if the contract is not payable.\n// @notice To use, construct the contract with the target as argument.\n// @author Remco Bloemen <remco@neufund.org>\ncontract ForceEther {\n\n  constructor() public payable { }\n\n  function destroyAndSend(address _recipient) public {\n    selfdestruct(_recipient);\n  }\n}\n",
  "sourcePath": "/home/ubuntu/S3Demo/S3Demo/contracts/zeppelin-solidity/contracts/mocks/ForceEther.sol",
  "compiler": {
    "name": "solc",
    "version": "0.4.23+commit.124ca40d.Emscripten.clang"
  },
  "schemaVersion": "2.0.0",
  "updatedAt": "2018-06-05T21:36:41.474Z"
}