{
  "contractName": "ReentrancyAttack",
  "abi": [
    {
      "constant": false,
      "inputs": [
        {
          "name": "data",
          "type": "bytes4"
        }
      ],
      "name": "callSender",
      "outputs": [],
      "payable": false,
      "stateMutability": "nonpayable",
      "type": "function"
    }
  ],
  "bytecode": "0x608060405234801561001057600080fd5b50610144806100206000396000f300608060405260043610610041576000357c0100000000000000000000000000000000000000000000000000000000900463ffffffff1680630a2df1ed14610046575b600080fd5b34801561005257600080fd5b5061009060048036038101908080357bffffffffffffffffffffffffffffffffffffffffffffffffffffffff19169060200190929190505050610092565b005b3373ffffffffffffffffffffffffffffffffffffffff16817c010000000000000000000000000000000000000000000000000000000090046040518163ffffffff167c01000000000000000000000000000000000000000000000000000000000281526004016000604051808303816000875af192505050151561011557600080fd5b505600a165627a7a72305820f2df5a5950e84507e4de07ca551c0ba5a84fd5131104f067e28229f655c4c01a0029",
  "source": "pragma solidity ^0.4.23;\n\n\ncontract ReentrancyAttack {\n\n  function callSender(bytes4 data) public {\n    // solium-disable-next-line security/no-low-level-calls\n    require(msg.sender.call(data));\n  }\n\n}\n",
  "sourcePath": "/home/ubuntu/tokenDemo2/contracts/zeppelin-solidity/contracts/mocks/ReentrancyAttack.sol",
  "compiler": {
    "name": "solc",
    "version": "0.4.23+commit.124ca40d.Emscripten.clang"
  },
  "schemaVersion": "2.0.0",
  "updatedAt": "2018-06-04T18:46:36.330Z"
}