{
  "contractName": "RefundableCrowdsaleImpl",
  "abi": [
    {
      "constant": true,
      "inputs": [],
      "name": "hasClosed",
      "outputs": [
        {
          "name": "",
          "type": "bool"
        }
      ],
      "payable": false,
      "stateMutability": "view",
      "type": "function"
    },
    {
      "constant": true,
      "inputs": [],
      "name": "rate",
      "outputs": [
        {
          "name": "",
          "type": "uint256"
        }
      ],
      "payable": false,
      "stateMutability": "view",
      "type": "function"
    },
    {
      "constant": true,
      "inputs": [],
      "name": "goal",
      "outputs": [
        {
          "name": "",
          "type": "uint256"
        }
      ],
      "payable": false,
      "stateMutability": "view",
      "type": "function"
    },
    {
      "constant": true,
      "inputs": [],
      "name": "weiRaised",
      "outputs": [
        {
          "name": "",
          "type": "uint256"
        }
      ],
      "payable": false,
      "stateMutability": "view",
      "type": "function"
    },
    {
      "constant": true,
      "inputs": [],
      "name": "closingTime",
      "outputs": [
        {
          "name": "",
          "type": "uint256"
        }
      ],
      "payable": false,
      "stateMutability": "view",
      "type": "function"
    },
    {
      "constant": false,
      "inputs": [],
      "name": "finalize",
      "outputs": [],
      "payable": false,
      "stateMutability": "nonpayable",
      "type": "function"
    },
    {
      "constant": true,
      "inputs": [],
      "name": "wallet",
      "outputs": [
        {
          "name": "",
          "type": "address"
        }
      ],
      "payable": false,
      "stateMutability": "view",
      "type": "function"
    },
    {
      "constant": false,
      "inputs": [],
      "name": "renounceOwnership",
      "outputs": [],
      "payable": false,
      "stateMutability": "nonpayable",
      "type": "function"
    },
    {
      "constant": true,
      "inputs": [],
      "name": "goalReached",
      "outputs": [
        {
          "name": "",
          "type": "bool"
        }
      ],
      "payable": false,
      "stateMutability": "view",
      "type": "function"
    },
    {
      "constant": true,
      "inputs": [],
      "name": "isFinalized",
      "outputs": [
        {
          "name": "",
          "type": "bool"
        }
      ],
      "payable": false,
      "stateMutability": "view",
      "type": "function"
    },
    {
      "constant": true,
      "inputs": [],
      "name": "owner",
      "outputs": [
        {
          "name": "",
          "type": "address"
        }
      ],
      "payable": false,
      "stateMutability": "view",
      "type": "function"
    },
    {
      "constant": false,
      "inputs": [],
      "name": "claimRefund",
      "outputs": [],
      "payable": false,
      "stateMutability": "nonpayable",
      "type": "function"
    },
    {
      "constant": true,
      "inputs": [],
      "name": "openingTime",
      "outputs": [
        {
          "name": "",
          "type": "uint256"
        }
      ],
      "payable": false,
      "stateMutability": "view",
      "type": "function"
    },
    {
      "constant": false,
      "inputs": [
        {
          "name": "_beneficiary",
          "type": "address"
        }
      ],
      "name": "buyTokens",
      "outputs": [],
      "payable": true,
      "stateMutability": "payable",
      "type": "function"
    },
    {
      "constant": false,
      "inputs": [
        {
          "name": "newOwner",
          "type": "address"
        }
      ],
      "name": "transferOwnership",
      "outputs": [],
      "payable": false,
      "stateMutability": "nonpayable",
      "type": "function"
    },
    {
      "constant": true,
      "inputs": [],
      "name": "vault",
      "outputs": [
        {
          "name": "",
          "type": "address"
        }
      ],
      "payable": false,
      "stateMutability": "view",
      "type": "function"
    },
    {
      "constant": true,
      "inputs": [],
      "name": "token",
      "outputs": [
        {
          "name": "",
          "type": "address"
        }
      ],
      "payable": false,
      "stateMutability": "view",
      "type": "function"
    },
    {
      "inputs": [
        {
          "name": "_openingTime",
          "type": "uint256"
        },
        {
          "name": "_closingTime",
          "type": "uint256"
        },
        {
          "name": "_rate",
          "type": "uint256"
        },
        {
          "name": "_wallet",
          "type": "address"
        },
        {
          "name": "_token",
          "type": "address"
        },
        {
          "name": "_goal",
          "type": "uint256"
        }
      ],
      "payable": false,
      "stateMutability": "nonpayable",
      "type": "constructor"
    },
    {
      "payable": true,
      "stateMutability": "payable",
      "type": "fallback"
    },
    {
      "anonymous": false,
      "inputs": [],
      "name": "Finalized",
      "type": "event"
    },
    {
      "anonymous": false,
      "inputs": [
        {
          "indexed": true,
          "name": "previousOwner",
          "type": "address"
        }
      ],
      "name": "OwnershipRenounced",
      "type": "event"
    },
    {
      "anonymous": false,
      "inputs": [
        {
          "indexed": true,
          "name": "previousOwner",
          "type": "address"
        },
        {
          "indexed": true,
          "name": "newOwner",
          "type": "address"
        }
      ],
      "name": "OwnershipTransferred",
      "type": "event"
    },
    {
      "anonymous": false,
      "inputs": [
        {
          "indexed": true,
          "name": "purchaser",
          "type": "address"
        },
        {
          "indexed": true,
          "name": "beneficiary",
          "type": "address"
        },
        {
          "indexed": false,
          "name": "value",
          "type": "uint256"
        },
        {
          "indexed": false,
          "name": "amount",
          "type": "uint256"
        }
      ],
      "name": "TokenPurchase",
      "type": "event"
    }
  ],
  "bytecode": "0x60806040526000600660146101000a81548160ff02191690831515021790555034801561002b57600080fd5b5060405160c080611db783398101806040528101908080519060200190929190805190602001909291908051906020019092919080519060200190929190805190602001909291908051906020019092919050505080868686868660008311151561009557600080fd5b600073ffffffffffffffffffffffffffffffffffffffff168273ffffffffffffffffffffffffffffffffffffffff16141515156100d157600080fd5b600073ffffffffffffffffffffffffffffffffffffffff168173ffffffffffffffffffffffffffffffffffffffff161415151561010d57600080fd5b8260028190555081600160006101000a81548173ffffffffffffffffffffffffffffffffffffffff021916908373ffffffffffffffffffffffffffffffffffffffff160217905550806000806101000a81548173ffffffffffffffffffffffffffffffffffffffff021916908373ffffffffffffffffffffffffffffffffffffffff1602179055505050504282101515156101a757600080fd5b8181101515156101b657600080fd5b8160048190555080600581905550505033600660006101000a81548173ffffffffffffffffffffffffffffffffffffffff021916908373ffffffffffffffffffffffffffffffffffffffff16021790555060008111151561021657600080fd5b600160009054906101000a900473ffffffffffffffffffffffffffffffffffffffff166102416102e7565b808273ffffffffffffffffffffffffffffffffffffffff1673ffffffffffffffffffffffffffffffffffffffff168152602001915050604051809103906000f080158015610293573d6000803e3d6000fd5b50600860006101000a81548173ffffffffffffffffffffffffffffffffffffffff021916908373ffffffffffffffffffffffffffffffffffffffff16021790555080600781905550505050505050506102f7565b604051610bdf806111d883390190565b610ed2806103066000396000f3006080604052600436106100f1576000357c0100000000000000000000000000000000000000000000000000000000900463ffffffff1680631515bc2b146100fc5780632c4e722e1461012b57806340193883146101565780634042b66f146101815780634b6753bc146101ac5780634bb278f3146101d7578063521eb273146101ee578063715018a6146102455780637d3d65221461025c5780638d4e40831461028b5780638da5cb5b146102ba578063b5545a3c14610311578063b7a8807c14610328578063ec8ac4d814610353578063f2fde38b14610389578063fbfa77cf146103cc578063fc0c546a14610423575b6100fa3361047a565b005b34801561010857600080fd5b50610111610548565b604051808215151515815260200191505060405180910390f35b34801561013757600080fd5b50610140610554565b6040518082815260200191505060405180910390f35b34801561016257600080fd5b5061016b61055a565b6040518082815260200191505060405180910390f35b34801561018d57600080fd5b50610196610560565b6040518082815260200191505060405180910390f35b3480156101b857600080fd5b506101c1610566565b6040518082815260200191505060405180910390f35b3480156101e357600080fd5b506101ec61056c565b005b3480156101fa57600080fd5b50610203610648565b604051808273ffffffffffffffffffffffffffffffffffffffff1673ffffffffffffffffffffffffffffffffffffffff16815260200191505060405180910390f35b34801561025157600080fd5b5061025a61066e565b005b34801561026857600080fd5b50610271610773565b604051808215151515815260200191505060405180910390f35b34801561029757600080fd5b506102a0610782565b604051808215151515815260200191505060405180910390f35b3480156102c657600080fd5b506102cf610795565b604051808273ffffffffffffffffffffffffffffffffffffffff1673ffffffffffffffffffffffffffffffffffffffff16815260200191505060405180910390f35b34801561031d57600080fd5b506103266107bb565b005b34801561033457600080fd5b5061033d6108c1565b6040518082815260200191505060405180910390f35b610387600480360381019080803573ffffffffffffffffffffffffffffffffffffffff16906020019092919050505061047a565b005b34801561039557600080fd5b506103ca600480360381019080803573ffffffffffffffffffffffffffffffffffffffff1690602001909291905050506108c7565b005b3480156103d857600080fd5b506103e1610a1f565b604051808273ffffffffffffffffffffffffffffffffffffffff1673ffffffffffffffffffffffffffffffffffffffff16815260200191505060405180910390f35b34801561042f57600080fd5b50610438610a45565b604051808273ffffffffffffffffffffffffffffffffffffffff1673ffffffffffffffffffffffffffffffffffffffff16815260200191505060405180910390f35b60008034915061048a8383610a6a565b61049382610a97565b90506104aa82600354610ab590919063ffffffff16565b6003819055506104ba8382610ad1565b8273ffffffffffffffffffffffffffffffffffffffff163373ffffffffffffffffffffffffffffffffffffffff167f623b3804fa71d67900d064613da8f94b9617215ee90799290593e1745087ad188484604051808381526020018281526020019250505060405180910390a36105318383610adf565b610539610ae3565b6105438383610bbb565b505050565b60006005544211905090565b60025481565b60075481565b60035481565b60055481565b600660009054906101000a900473ffffffffffffffffffffffffffffffffffffffff1673ffffffffffffffffffffffffffffffffffffffff163373ffffffffffffffffffffffffffffffffffffffff161415156105c857600080fd5b600660149054906101000a900460ff161515156105e457600080fd5b6105ec610548565b15156105f757600080fd5b6105ff610bbf565b7f6823b073d48d6e3a7d385eeb601452d680e74bb46afe3255a7d778f3a9b1768160405160405180910390a16001600660146101000a81548160ff021916908315150217905550565b600160009054906101000a900473ffffffffffffffffffffffffffffffffffffffff1681565b600660009054906101000a900473ffffffffffffffffffffffffffffffffffffffff1673ffffffffffffffffffffffffffffffffffffffff163373ffffffffffffffffffffffffffffffffffffffff161415156106ca57600080fd5b600660009054906101000a900473ffffffffffffffffffffffffffffffffffffffff1673ffffffffffffffffffffffffffffffffffffffff167ff8df31144d9c2f0f6b59d69b8b98abd5459d07f2742c4df920b25aae33c6482060405160405180910390a26000600660006101000a81548173ffffffffffffffffffffffffffffffffffffffff021916908373ffffffffffffffffffffffffffffffffffffffff160217905550565b60006007546003541015905090565b600660149054906101000a900460ff1681565b600660009054906101000a900473ffffffffffffffffffffffffffffffffffffffff1681565b600660149054906101000a900460ff1615156107d657600080fd5b6107de610773565b1515156107ea57600080fd5b600860009054906101000a900473ffffffffffffffffffffffffffffffffffffffff1673ffffffffffffffffffffffffffffffffffffffff1663fa89401a336040518263ffffffff167c0100000000000000000000000000000000000000000000000000000000028152600401808273ffffffffffffffffffffffffffffffffffffffff1673ffffffffffffffffffffffffffffffffffffffff168152602001915050600060405180830381600087803b1580156108a757600080fd5b505af11580156108bb573d6000803e3d6000fd5b50505050565b60045481565b600660009054906101000a900473ffffffffffffffffffffffffffffffffffffffff1673ffffffffffffffffffffffffffffffffffffffff163373ffffffffffffffffffffffffffffffffffffffff1614151561092357600080fd5b600073ffffffffffffffffffffffffffffffffffffffff168173ffffffffffffffffffffffffffffffffffffffff161415151561095f57600080fd5b8073ffffffffffffffffffffffffffffffffffffffff16600660009054906101000a900473ffffffffffffffffffffffffffffffffffffffff1673ffffffffffffffffffffffffffffffffffffffff167f8be0079c531659141344cd1fd0a4f28419497f9722a3daafe3b4186f6b6457e060405160405180910390a380600660006101000a81548173ffffffffffffffffffffffffffffffffffffffff021916908373ffffffffffffffffffffffffffffffffffffffff16021790555050565b600860009054906101000a900473ffffffffffffffffffffffffffffffffffffffff1681565b6000809054906101000a900473ffffffffffffffffffffffffffffffffffffffff1681565b6004544210158015610a7e57506005544211155b1515610a8957600080fd5b610a938282610d18565b5050565b6000610aae60025483610d6890919063ffffffff16565b9050919050565b60008183019050828110151515610ac857fe5b80905092915050565b610adb8282610da0565b5050565b5050565b600860009054906101000a900473ffffffffffffffffffffffffffffffffffffffff1673ffffffffffffffffffffffffffffffffffffffff1663f340fa0134336040518363ffffffff167c0100000000000000000000000000000000000000000000000000000000028152600401808273ffffffffffffffffffffffffffffffffffffffff1673ffffffffffffffffffffffffffffffffffffffff1681526020019150506000604051808303818588803b158015610ba057600080fd5b505af1158015610bb4573d6000803e3d6000fd5b5050505050565b5050565b610bc7610773565b15610c6f57600860009054906101000a900473ffffffffffffffffffffffffffffffffffffffff1673ffffffffffffffffffffffffffffffffffffffff166343d726d66040518163ffffffff167c0100000000000000000000000000000000000000000000000000000000028152600401600060405180830381600087803b158015610c5257600080fd5b505af1158015610c66573d6000803e3d6000fd5b50505050610d0e565b600860009054906101000a900473ffffffffffffffffffffffffffffffffffffffff1673ffffffffffffffffffffffffffffffffffffffff16638c52dc416040518163ffffffff167c0100000000000000000000000000000000000000000000000000000000028152600401600060405180830381600087803b158015610cf557600080fd5b505af1158015610d09573d6000803e3d6000fd5b505050505b610d16610ea4565b565b600073ffffffffffffffffffffffffffffffffffffffff168273ffffffffffffffffffffffffffffffffffffffff1614151515610d5457600080fd5b60008114151515610d6457600080fd5b5050565b600080831415610d7b5760009050610d9a565b8183029050818382811515610d8c57fe5b04141515610d9657fe5b8090505b92915050565b6000809054906101000a900473ffffffffffffffffffffffffffffffffffffffff1673ffffffffffffffffffffffffffffffffffffffff1663a9059cbb83836040518363ffffffff167c0100000000000000000000000000000000000000000000000000000000028152600401808373ffffffffffffffffffffffffffffffffffffffff1673ffffffffffffffffffffffffffffffffffffffff16815260200182815260200192505050602060405180830381600087803b158015610e6457600080fd5b505af1158015610e78573d6000803e3d6000fd5b505050506040513d6020811015610e8e57600080fd5b8101908080519060200190929190505050505050565b5600a165627a7a723058206a897c33ec5f0aed8c10f7d862471764738e3570bf9ab1e6484808896cf4508d0029608060405234801561001057600080fd5b50604051602080610bdf83398101806040528101908080519060200190929190505050336000806101000a81548173ffffffffffffffffffffffffffffffffffffffff021916908373ffffffffffffffffffffffffffffffffffffffff160217905550600073ffffffffffffffffffffffffffffffffffffffff168173ffffffffffffffffffffffffffffffffffffffff16141515156100af57600080fd5b80600260006101000a81548173ffffffffffffffffffffffffffffffffffffffff021916908373ffffffffffffffffffffffffffffffffffffffff1602179055506000600260146101000a81548160ff0219169083600281111561010f57fe5b021790555050610abb806101246000396000f3006080604052600436106100a4576000357c0100000000000000000000000000000000000000000000000000000000900463ffffffff16806343d726d6146100a9578063521eb273146100c0578063715018a6146101175780638c52dc411461012e5780638da5cb5b14610145578063c19d93fb1461019c578063cb13cddb146101d5578063f2fde38b1461022c578063f340fa011461026f578063fa89401a146102a5575b600080fd5b3480156100b557600080fd5b506100be6102e8565b005b3480156100cc57600080fd5b506100d5610448565b604051808273ffffffffffffffffffffffffffffffffffffffff1673ffffffffffffffffffffffffffffffffffffffff16815260200191505060405180910390f35b34801561012357600080fd5b5061012c61046e565b005b34801561013a57600080fd5b50610143610570565b005b34801561015157600080fd5b5061015a610651565b604051808273ffffffffffffffffffffffffffffffffffffffff1673ffffffffffffffffffffffffffffffffffffffff16815260200191505060405180910390f35b3480156101a857600080fd5b506101b1610676565b604051808260028111156101c157fe5b60ff16815260200191505060405180910390f35b3480156101e157600080fd5b50610216600480360381019080803573ffffffffffffffffffffffffffffffffffffffff169060200190929190505050610689565b6040518082815260200191505060405180910390f35b34801561023857600080fd5b5061026d600480360381019080803573ffffffffffffffffffffffffffffffffffffffff1690602001909291905050506106a1565b005b6102a3600480360381019080803573ffffffffffffffffffffffffffffffffffffffff1690602001909291905050506107f6565b005b3480156102b157600080fd5b506102e6600480360381019080803573ffffffffffffffffffffffffffffffffffffffff16906020019092919050505061091d565b005b6000809054906101000a900473ffffffffffffffffffffffffffffffffffffffff1673ffffffffffffffffffffffffffffffffffffffff163373ffffffffffffffffffffffffffffffffffffffff1614151561034357600080fd5b6000600281111561035057fe5b600260149054906101000a900460ff16600281111561036b57fe5b14151561037757600080fd5b60028060146101000a81548160ff0219169083600281111561039557fe5b02179055507f1cdde67b72a90f19919ac732a437ac2f7a10fc128d28c2a6e525d89ce5cd9d3a60405160405180910390a1600260009054906101000a900473ffffffffffffffffffffffffffffffffffffffff1673ffffffffffffffffffffffffffffffffffffffff166108fc3073ffffffffffffffffffffffffffffffffffffffff16319081150290604051600060405180830381858888f19350505050158015610445573d6000803e3d6000fd5b50565b600260009054906101000a900473ffffffffffffffffffffffffffffffffffffffff1681565b6000809054906101000a900473ffffffffffffffffffffffffffffffffffffffff1673ffffffffffffffffffffffffffffffffffffffff163373ffffffffffffffffffffffffffffffffffffffff161415156104c957600080fd5b6000809054906101000a900473ffffffffffffffffffffffffffffffffffffffff1673ffffffffffffffffffffffffffffffffffffffff167ff8df31144d9c2f0f6b59d69b8b98abd5459d07f2742c4df920b25aae33c6482060405160405180910390a260008060006101000a81548173ffffffffffffffffffffffffffffffffffffffff021916908373ffffffffffffffffffffffffffffffffffffffff160217905550565b6000809054906101000a900473ffffffffffffffffffffffffffffffffffffffff1673ffffffffffffffffffffffffffffffffffffffff163373ffffffffffffffffffffffffffffffffffffffff161415156105cb57600080fd5b600060028111156105d857fe5b600260149054906101000a900460ff1660028111156105f357fe5b1415156105ff57600080fd5b6001600260146101000a81548160ff0219169083600281111561061e57fe5b02179055507f599d8e5a83cffb867d051598c4d70e805d59802d8081c1c7d6dffc5b6aca2b8960405160405180910390a1565b6000809054906101000a900473ffffffffffffffffffffffffffffffffffffffff1681565b600260149054906101000a900460ff1681565b60016020528060005260406000206000915090505481565b6000809054906101000a900473ffffffffffffffffffffffffffffffffffffffff1673ffffffffffffffffffffffffffffffffffffffff163373ffffffffffffffffffffffffffffffffffffffff161415156106fc57600080fd5b600073ffffffffffffffffffffffffffffffffffffffff168173ffffffffffffffffffffffffffffffffffffffff161415151561073857600080fd5b8073ffffffffffffffffffffffffffffffffffffffff166000809054906101000a900473ffffffffffffffffffffffffffffffffffffffff1673ffffffffffffffffffffffffffffffffffffffff167f8be0079c531659141344cd1fd0a4f28419497f9722a3daafe3b4186f6b6457e060405160405180910390a3806000806101000a81548173ffffffffffffffffffffffffffffffffffffffff021916908373ffffffffffffffffffffffffffffffffffffffff16021790555050565b6000809054906101000a900473ffffffffffffffffffffffffffffffffffffffff1673ffffffffffffffffffffffffffffffffffffffff163373ffffffffffffffffffffffffffffffffffffffff1614151561085157600080fd5b6000600281111561085e57fe5b600260149054906101000a900460ff16600281111561087957fe5b14151561088557600080fd5b6108d734600160008473ffffffffffffffffffffffffffffffffffffffff1673ffffffffffffffffffffffffffffffffffffffff16815260200190815260200160002054610a7390919063ffffffff16565b600160008373ffffffffffffffffffffffffffffffffffffffff1673ffffffffffffffffffffffffffffffffffffffff1681526020019081526020016000208190555050565b60006001600281111561092c57fe5b600260149054906101000a900460ff16600281111561094757fe5b14151561095357600080fd5b600160008373ffffffffffffffffffffffffffffffffffffffff1673ffffffffffffffffffffffffffffffffffffffff1681526020019081526020016000205490506000600160008473ffffffffffffffffffffffffffffffffffffffff1673ffffffffffffffffffffffffffffffffffffffff168152602001908152602001600020819055508173ffffffffffffffffffffffffffffffffffffffff166108fc829081150290604051600060405180830381858888f19350505050158015610a20573d6000803e3d6000fd5b508173ffffffffffffffffffffffffffffffffffffffff167fd7dee2702d63ad89917b6a4da9981c90c4d24f8c2bdfd64c604ecae57d8d0651826040518082815260200191505060405180910390a25050565b60008183019050828110151515610a8657fe5b809050929150505600a165627a7a72305820dcd9434a1b53cf130f6b4d979ef8ce535700fe5d6a129a72a05528b7c37caf6a0029",
  "source": "pragma solidity ^0.4.23;\n\nimport \"../token/ERC20/MintableToken.sol\";\nimport \"../crowdsale/distribution/RefundableCrowdsale.sol\";\n\n\ncontract RefundableCrowdsaleImpl is RefundableCrowdsale {\n\n  constructor (\n    uint256 _openingTime,\n    uint256 _closingTime,\n    uint256 _rate,\n    address _wallet,\n    MintableToken _token,\n    uint256 _goal\n  )\n    public\n    Crowdsale(_rate, _wallet, _token)\n    TimedCrowdsale(_openingTime, _closingTime)\n    RefundableCrowdsale(_goal)\n  {\n  }\n\n}\n",
  "sourcePath": "/home/ubuntu/S3Demo/S3Demo/contracts/zeppelin-solidity/contracts/mocks/RefundableCrowdsaleImpl.sol",
  "compiler": {
    "name": "solc",
    "version": "0.4.23+commit.124ca40d.Emscripten.clang"
  },
  "schemaVersion": "2.0.0",
  "updatedAt": "2018-06-05T19:48:54.808Z"
}