{
  "contractName": "TheRegS",
  "abi": [
    {
      "constant": false,
      "inputs": [],
      "name": "renounceOwnership",
      "outputs": [],
      "payable": false,
      "stateMutability": "nonpayable",
      "type": "function"
    },
    {
      "constant": true,
      "inputs": [],
      "name": "owner",
      "outputs": [
        {
          "name": "",
          "type": "address"
        }
      ],
      "payable": false,
      "stateMutability": "view",
      "type": "function"
    },
    {
      "constant": false,
      "inputs": [
        {
          "name": "newOwner",
          "type": "address"
        }
      ],
      "name": "transferOwnership",
      "outputs": [],
      "payable": false,
      "stateMutability": "nonpayable",
      "type": "function"
    },
    {
      "anonymous": false,
      "inputs": [
        {
          "indexed": true,
          "name": "previousOwner",
          "type": "address"
        }
      ],
      "name": "OwnershipRenounced",
      "type": "event"
    },
    {
      "anonymous": false,
      "inputs": [
        {
          "indexed": true,
          "name": "previousOwner",
          "type": "address"
        },
        {
          "indexed": true,
          "name": "newOwner",
          "type": "address"
        }
      ],
      "name": "OwnershipTransferred",
      "type": "event"
    },
    {
      "constant": false,
      "inputs": [],
      "name": "startTrading",
      "outputs": [],
      "payable": false,
      "stateMutability": "nonpayable",
      "type": "function"
    },
    {
      "constant": false,
      "inputs": [
        {
          "name": "_checker",
          "type": "address"
        },
        {
          "name": "_token",
          "type": "address"
        }
      ],
      "name": "registerAmlKycChecker",
      "outputs": [],
      "payable": false,
      "stateMutability": "nonpayable",
      "type": "function"
    },
    {
      "constant": false,
      "inputs": [
        {
          "name": "_checker",
          "type": "address"
        },
        {
          "name": "_token",
          "type": "address"
        }
      ],
      "name": "registerAccreditationChecker",
      "outputs": [],
      "payable": false,
      "stateMutability": "nonpayable",
      "type": "function"
    },
    {
      "constant": false,
      "inputs": [
        {
          "name": "_checker",
          "type": "address"
        },
        {
          "name": "_token",
          "type": "address"
        }
      ],
      "name": "registerResidencyChecker",
      "outputs": [],
      "payable": false,
      "stateMutability": "nonpayable",
      "type": "function"
    },
    {
      "constant": false,
      "inputs": [
        {
          "name": "_from",
          "type": "address"
        },
        {
          "name": "_to",
          "type": "address"
        },
        {
          "name": "_value",
          "type": "uint256"
        },
        {
          "name": "_token",
          "type": "address"
        }
      ],
      "name": "test",
      "outputs": [
        {
          "name": "",
          "type": "uint16"
        }
      ],
      "payable": false,
      "stateMutability": "nonpayable",
      "type": "function"
    }
  ],
  "bytecode": "0x6080604052336000806101000a81548173ffffffffffffffffffffffffffffffffffffffff021916908373ffffffffffffffffffffffffffffffffffffffff160217905550610e6f806100536000396000f30060806040526004361061008e576000357c0100000000000000000000000000000000000000000000000000000000900463ffffffff168063293230b8146100935780635fa64e64146100aa578063715018a61461010d5780638da5cb5b14610124578063c9874dba1461017b578063e7d562e414610224578063f2fde38b14610287578063f842a697146102ca575b600080fd5b34801561009f57600080fd5b506100a861032d565b005b3480156100b657600080fd5b5061010b600480360381019080803573ffffffffffffffffffffffffffffffffffffffff169060200190929190803573ffffffffffffffffffffffffffffffffffffffff16906020019092919050505061032f565b005b34801561011957600080fd5b50610122610489565b005b34801561013057600080fd5b5061013961058b565b604051808273ffffffffffffffffffffffffffffffffffffffff1673ffffffffffffffffffffffffffffffffffffffff16815260200191505060405180910390f35b34801561018757600080fd5b50610206600480360381019080803573ffffffffffffffffffffffffffffffffffffffff169060200190929190803573ffffffffffffffffffffffffffffffffffffffff16906020019092919080359060200190929190803573ffffffffffffffffffffffffffffffffffffffff1690602001909291905050506105b0565b604051808261ffff1661ffff16815260200191505060405180910390f35b34801561023057600080fd5b50610285600480360381019080803573ffffffffffffffffffffffffffffffffffffffff169060200190929190803573ffffffffffffffffffffffffffffffffffffffff16906020019092919050505061067d565b005b34801561029357600080fd5b506102c8600480360381019080803573ffffffffffffffffffffffffffffffffffffffff1690602001909291905050506107d7565b005b3480156102d657600080fd5b5061032b600480360381019080803573ffffffffffffffffffffffffffffffffffffffff169060200190929190803573ffffffffffffffffffffffffffffffffffffffff16906020019092919050505061092c565b005b565b3373ffffffffffffffffffffffffffffffffffffffff168173ffffffffffffffffffffffffffffffffffffffff16638da5cb5b6040518163ffffffff167c0100000000000000000000000000000000000000000000000000000000028152600401602060405180830381600087803b1580156103aa57600080fd5b505af11580156103be573d6000803e3d6000fd5b505050506040513d60208110156103d457600080fd5b810190808051906020019092919050505073ffffffffffffffffffffffffffffffffffffffff1614151561040757600080fd5b81600460008373ffffffffffffffffffffffffffffffffffffffff1673ffffffffffffffffffffffffffffffffffffffff16815260200190815260200160002060006101000a81548173ffffffffffffffffffffffffffffffffffffffff021916908373ffffffffffffffffffffffffffffffffffffffff1602179055505050565b6000809054906101000a900473ffffffffffffffffffffffffffffffffffffffff1673ffffffffffffffffffffffffffffffffffffffff163373ffffffffffffffffffffffffffffffffffffffff161415156104e457600080fd5b6000809054906101000a900473ffffffffffffffffffffffffffffffffffffffff1673ffffffffffffffffffffffffffffffffffffffff167ff8df31144d9c2f0f6b59d69b8b98abd5459d07f2742c4df920b25aae33c6482060405160405180910390a260008060006101000a81548173ffffffffffffffffffffffffffffffffffffffff021916908373ffffffffffffffffffffffffffffffffffffffff160217905550565b6000809054906101000a900473ffffffffffffffffffffffffffffffffffffffff1681565b60006105bc8583610a86565b15156105d657600360058111156105cf57fe5b9050610675565b6105e08483610a86565b15156105fa57600160058111156105f357fe5b9050610675565b6106048483610bc5565b151561061d5760058081111561061657fe5b9050610675565b6106278583610d04565b1515610641576004600581111561063a57fe5b9050610675565b61064b8483610d04565b1515610665576002600581111561065e57fe5b9050610675565b6000600581111561067257fe5b90505b949350505050565b3373ffffffffffffffffffffffffffffffffffffffff168173ffffffffffffffffffffffffffffffffffffffff16638da5cb5b6040518163ffffffff167c0100000000000000000000000000000000000000000000000000000000028152600401602060405180830381600087803b1580156106f857600080fd5b505af115801561070c573d6000803e3d6000fd5b505050506040513d602081101561072257600080fd5b810190808051906020019092919050505073ffffffffffffffffffffffffffffffffffffffff1614151561075557600080fd5b81600260008373ffffffffffffffffffffffffffffffffffffffff1673ffffffffffffffffffffffffffffffffffffffff16815260200190815260200160002060006101000a81548173ffffffffffffffffffffffffffffffffffffffff021916908373ffffffffffffffffffffffffffffffffffffffff1602179055505050565b6000809054906101000a900473ffffffffffffffffffffffffffffffffffffffff1673ffffffffffffffffffffffffffffffffffffffff163373ffffffffffffffffffffffffffffffffffffffff1614151561083257600080fd5b600073ffffffffffffffffffffffffffffffffffffffff168173ffffffffffffffffffffffffffffffffffffffff161415151561086e57600080fd5b8073ffffffffffffffffffffffffffffffffffffffff166000809054906101000a900473ffffffffffffffffffffffffffffffffffffffff1673ffffffffffffffffffffffffffffffffffffffff167f8be0079c531659141344cd1fd0a4f28419497f9722a3daafe3b4186f6b6457e060405160405180910390a3806000806101000a81548173ffffffffffffffffffffffffffffffffffffffff021916908373ffffffffffffffffffffffffffffffffffffffff16021790555050565b3373ffffffffffffffffffffffffffffffffffffffff168173ffffffffffffffffffffffffffffffffffffffff16638da5cb5b6040518163ffffffff167c0100000000000000000000000000000000000000000000000000000000028152600401602060405180830381600087803b1580156109a757600080fd5b505af11580156109bb573d6000803e3d6000fd5b505050506040513d60208110156109d157600080fd5b810190808051906020019092919050505073ffffffffffffffffffffffffffffffffffffffff16141515610a0457600080fd5b81600160008373ffffffffffffffffffffffffffffffffffffffff1673ffffffffffffffffffffffffffffffffffffffff16815260200190815260200160002060006101000a81548173ffffffffffffffffffffffffffffffffffffffff021916908373ffffffffffffffffffffffffffffffffffffffff1602179055505050565b6000600160008373ffffffffffffffffffffffffffffffffffffffff1673ffffffffffffffffffffffffffffffffffffffff16815260200190815260200160002060009054906101000a900473ffffffffffffffffffffffffffffffffffffffff1673ffffffffffffffffffffffffffffffffffffffff1663eb4dd8f2846040518263ffffffff167c0100000000000000000000000000000000000000000000000000000000028152600401808273ffffffffffffffffffffffffffffffffffffffff1673ffffffffffffffffffffffffffffffffffffffff168152602001915050602060405180830381600087803b158015610b8257600080fd5b505af1158015610b96573d6000803e3d6000fd5b505050506040513d6020811015610bac57600080fd5b8101908080519060200190929190505050905092915050565b6000600260008373ffffffffffffffffffffffffffffffffffffffff1673ffffffffffffffffffffffffffffffffffffffff16815260200190815260200160002060009054906101000a900473ffffffffffffffffffffffffffffffffffffffff1673ffffffffffffffffffffffffffffffffffffffff1663eb4dd8f2846040518263ffffffff167c0100000000000000000000000000000000000000000000000000000000028152600401808273ffffffffffffffffffffffffffffffffffffffff1673ffffffffffffffffffffffffffffffffffffffff168152602001915050602060405180830381600087803b158015610cc157600080fd5b505af1158015610cd5573d6000803e3d6000fd5b505050506040513d6020811015610ceb57600080fd5b8101908080519060200190929190505050905092915050565b6000600460008373ffffffffffffffffffffffffffffffffffffffff1673ffffffffffffffffffffffffffffffffffffffff16815260200190815260200160002060009054906101000a900473ffffffffffffffffffffffffffffffffffffffff1673ffffffffffffffffffffffffffffffffffffffff1663eb4dd8f2846040518263ffffffff167c0100000000000000000000000000000000000000000000000000000000028152600401808273ffffffffffffffffffffffffffffffffffffffff1673ffffffffffffffffffffffffffffffffffffffff168152602001915050602060405180830381600087803b158015610e0057600080fd5b505af1158015610e14573d6000803e3d6000fd5b505050506040513d6020811015610e2a57600080fd5b81019080805190602001909291905050509050929150505600a165627a7a72305820231ed4f7fae8c08ef3b8f7876ca71983a245fb1b8e887a7d148239d2d7f688b90029",
  "source": "pragma solidity ^0.4.18;\n\nimport './RegS.sol';\nimport './RegSToken.sol';\nimport './UserChecker.sol';\nimport './zeppelin-solidity/contracts/ownership/Ownable.sol';\n\n/// @title Implementation of RegS\ncontract TheRegS is RegS, Ownable {\n\n  /// Table of AML-KYC checking contracts\n  mapping(address => address) amlkycChecker;\n\n  ///\n  /// Table of accredited investor status checking contracts\n  mapping(address => address) accreditationChecker;\n\n  ///\n  /// Issuance dates for securities restricted by this contract\n  mapping(address => uint256) issuanceDate;\n\n  /// Table of residency status checking contracts\n  mapping(address => address) residencyChecker;\n  \n  ///\n  /// Error codes\n  enum ErrorCode {\n    Ok,\n    BuyerAMLKYC,\n    BuyerResidency,\n    SellerAMLKYC,\n    SellerResidency,\n    Accreditation\n  }\n\n\tfunction startTrading() public {\n\t\t//TODO: what should I do?\n\t\treturn;\n\t}\n\n  ///\n  /// Register a contract to confirm AML-KYC status\n  function registerAmlKycChecker(address _checker, address _token)\n    public\n  {\n    require(Ownable(_token).owner() == msg.sender);\n    amlkycChecker[_token] = _checker;\n  }\n\n  ///\n  /// Register a contract to confirm accreditation status\n  function registerAccreditationChecker(address _checker, address _token)\n    public\n  {\n    require(Ownable(_token).owner() == msg.sender);\n    accreditationChecker[_token] = _checker;\n  }\n\n  /// Register residency checker\n  function registerResidencyChecker(address _checker, address _token)\n    public\n  {\n    require(Ownable(_token).owner() == msg.sender);\n    residencyChecker[_token] = _checker;\n  }\n  \n  ///\n  /// Verify rules\n  function test(address _from, address _to, uint256 _value, address _token)\n    external\n    returns (uint16)\n  {\n\n    // The seller must have supplied AMLKYC information  \n    if (!amlkyc(_from, _token))\n      return uint16(ErrorCode.SellerAMLKYC);\n    \n    // The buyer must have supplied AMLKYC information\n    if (!amlkyc(_to, _token))\n      return uint16(ErrorCode.BuyerAMLKYC);\n\n    // The buyer must be an accredited investor\n    if (!accreditation(_to, _token))\n      return uint16(ErrorCode.Accreditation);\n\n    // The seller must be a non-USA investor\n    if (!residency(_from, _token))\n      return uint16(ErrorCode.SellerResidency);\n\n    // The buyer must be a non-USA investor\n    if (!residency(_to, _token))\n      return uint16(ErrorCode.BuyerResidency);\n\n    return uint16(ErrorCode.Ok);\n\n  }\n  \n  ///\n  /// Confirm AML-KYC status with the registered checker\n  function amlkyc(address _user, address _token)\n    internal\n    returns (bool)\n  {\n    return UserChecker(amlkycChecker[_token]).confirm(_user);\n  }\n\n  ///\n  /// Confirm accredited investor status with the associated checker\n  function accreditation(address _user, address _token)\n    internal\n    returns (bool)\n  {\n    return UserChecker(accreditationChecker[_token]).confirm(_user);\n  }\n  \n  ///\n  /// Confirm international status\n  function residency(address _user, address _token)\n    internal\n    returns (bool)\n  {\n    return UserChecker(residencyChecker[_token]).confirm(_user);\n  }\n\n}\n",
  "sourcePath": "/home/ubuntu/S3Demo/S3Demo/contracts/TheRegS.sol",
  "compiler": {
    "name": "solc",
    "version": "0.4.23+commit.124ca40d.Emscripten.clang"
  },
  "schemaVersion": "2.0.0",
  "updatedAt": "2018-06-06T16:05:52.378Z"
}