{
  "contractName": "TheRegD506c",
  "abi": [
    {
      "constant": false,
      "inputs": [],
      "name": "renounceOwnership",
      "outputs": [],
      "payable": false,
      "stateMutability": "nonpayable",
      "type": "function"
    },
    {
      "constant": true,
      "inputs": [],
      "name": "owner",
      "outputs": [
        {
          "name": "",
          "type": "address"
        }
      ],
      "payable": false,
      "stateMutability": "view",
      "type": "function"
    },
    {
      "constant": false,
      "inputs": [
        {
          "name": "newOwner",
          "type": "address"
        }
      ],
      "name": "transferOwnership",
      "outputs": [],
      "payable": false,
      "stateMutability": "nonpayable",
      "type": "function"
    },
    {
      "inputs": [
        {
          "name": "holdingPeriod_",
          "type": "uint256"
        }
      ],
      "payable": false,
      "stateMutability": "nonpayable",
      "type": "constructor"
    },
    {
      "anonymous": false,
      "inputs": [
        {
          "indexed": true,
          "name": "previousOwner",
          "type": "address"
        }
      ],
      "name": "OwnershipRenounced",
      "type": "event"
    },
    {
      "anonymous": false,
      "inputs": [
        {
          "indexed": true,
          "name": "previousOwner",
          "type": "address"
        },
        {
          "indexed": true,
          "name": "newOwner",
          "type": "address"
        }
      ],
      "name": "OwnershipTransferred",
      "type": "event"
    },
    {
      "constant": false,
      "inputs": [
        {
          "name": "_checker",
          "type": "address"
        },
        {
          "name": "_token",
          "type": "address"
        }
      ],
      "name": "registerAmlKycChecker",
      "outputs": [],
      "payable": false,
      "stateMutability": "nonpayable",
      "type": "function"
    },
    {
      "constant": false,
      "inputs": [
        {
          "name": "_checker",
          "type": "address"
        },
        {
          "name": "_token",
          "type": "address"
        }
      ],
      "name": "registerAccreditationChecker",
      "outputs": [],
      "payable": false,
      "stateMutability": "nonpayable",
      "type": "function"
    },
    {
      "constant": false,
      "inputs": [],
      "name": "startHoldingPeriod",
      "outputs": [],
      "payable": false,
      "stateMutability": "nonpayable",
      "type": "function"
    },
    {
      "constant": false,
      "inputs": [
        {
          "name": "_from",
          "type": "address"
        },
        {
          "name": "_to",
          "type": "address"
        },
        {
          "name": "_value",
          "type": "uint256"
        },
        {
          "name": "_token",
          "type": "address"
        }
      ],
      "name": "test",
      "outputs": [
        {
          "name": "",
          "type": "uint16"
        }
      ],
      "payable": false,
      "stateMutability": "nonpayable",
      "type": "function"
    }
  ],
  "bytecode": "0x608060405234801561001057600080fd5b50604051602080610ed083398101806040528101908080519060200190929190505050336000806101000a81548173ffffffffffffffffffffffffffffffffffffffff021916908373ffffffffffffffffffffffffffffffffffffffff1602179055508060048190555050610e468061008a6000396000f300608060405260043610610083576000357c0100000000000000000000000000000000000000000000000000000000900463ffffffff1680630ff2f94514610088578063715018a61461009f5780638da5cb5b146100b6578063c9874dba1461010d578063e7d562e4146101b6578063f2fde38b14610219578063f842a6971461025c575b600080fd5b34801561009457600080fd5b5061009d6102bf565b005b3480156100ab57600080fd5b506100b461034e565b005b3480156100c257600080fd5b506100cb610450565b604051808273ffffffffffffffffffffffffffffffffffffffff1673ffffffffffffffffffffffffffffffffffffffff16815260200191505060405180910390f35b34801561011957600080fd5b50610198600480360381019080803573ffffffffffffffffffffffffffffffffffffffff169060200190929190803573ffffffffffffffffffffffffffffffffffffffff16906020019092919080359060200190929190803573ffffffffffffffffffffffffffffffffffffffff169060200190929190505050610475565b604051808261ffff1661ffff16815260200191505060405180910390f35b3480156101c257600080fd5b50610217600480360381019080803573ffffffffffffffffffffffffffffffffffffffff169060200190929190803573ffffffffffffffffffffffffffffffffffffffff169060200190929190505050610793565b005b34801561022557600080fd5b5061025a600480360381019080803573ffffffffffffffffffffffffffffffffffffffff1690602001909291905050506108ed565b005b34801561026857600080fd5b506102bd600480360381019080803573ffffffffffffffffffffffffffffffffffffffff169060200190929190803573ffffffffffffffffffffffffffffffffffffffff169060200190929190505050610a42565b005b6000600360003373ffffffffffffffffffffffffffffffffffffffff1673ffffffffffffffffffffffffffffffffffffffff16815260200190815260200160002054141561034c5742600360003373ffffffffffffffffffffffffffffffffffffffff1673ffffffffffffffffffffffffffffffffffffffff168152602001908152602001600020819055505b565b6000809054906101000a900473ffffffffffffffffffffffffffffffffffffffff1673ffffffffffffffffffffffffffffffffffffffff163373ffffffffffffffffffffffffffffffffffffffff161415156103a957600080fd5b6000809054906101000a900473ffffffffffffffffffffffffffffffffffffffff1673ffffffffffffffffffffffffffffffffffffffff167ff8df31144d9c2f0f6b59d69b8b98abd5459d07f2742c4df920b25aae33c6482060405160405180910390a260008060006101000a81548173ffffffffffffffffffffffffffffffffffffffff021916908373ffffffffffffffffffffffffffffffffffffffff160217905550565b6000809054906101000a900473ffffffffffffffffffffffffffffffffffffffff1681565b6000806000600360008573ffffffffffffffffffffffffffffffffffffffff1673ffffffffffffffffffffffffffffffffffffffff168152602001908152602001600020541415801561050a5750600454600360008573ffffffffffffffffffffffffffffffffffffffff1673ffffffffffffffffffffffffffffffffffffffff168152602001908152602001600020540142105b15610523576001600581111561051c57fe5b915061078a565b8273ffffffffffffffffffffffffffffffffffffffff166386fb88078787876040518463ffffffff167c0100000000000000000000000000000000000000000000000000000000028152600401808473ffffffffffffffffffffffffffffffffffffffff1673ffffffffffffffffffffffffffffffffffffffff1681526020018373ffffffffffffffffffffffffffffffffffffffff1673ffffffffffffffffffffffffffffffffffffffff1681526020018281526020019350505050602060405180830381600087803b1580156105fa57600080fd5b505af115801561060e573d6000803e3d6000fd5b505050506040513d602081101561062457600080fd5b810190808051906020019092919050505090508273ffffffffffffffffffffffffffffffffffffffff166317fe7ad56040518163ffffffff167c0100000000000000000000000000000000000000000000000000000000028152600401602060405180830381600087803b15801561069b57600080fd5b505af11580156106af573d6000803e3d6000fd5b505050506040513d60208110156106c557600080fd5b810190808051906020019092919050505080156106e6575060638161ffff16115b806106f657506107d08161ffff16115b1561070f576002600581111561070857fe5b915061078a565b6107198684610b9c565b1515610733576004600581111561072c57fe5b915061078a565b61073d8584610b9c565b1515610757576003600581111561075057fe5b915061078a565b6107618584610cdb565b151561077a5760058081111561077357fe5b915061078a565b6000600581111561078757fe5b91505b50949350505050565b3373ffffffffffffffffffffffffffffffffffffffff168173ffffffffffffffffffffffffffffffffffffffff16638da5cb5b6040518163ffffffff167c0100000000000000000000000000000000000000000000000000000000028152600401602060405180830381600087803b15801561080e57600080fd5b505af1158015610822573d6000803e3d6000fd5b505050506040513d602081101561083857600080fd5b810190808051906020019092919050505073ffffffffffffffffffffffffffffffffffffffff1614151561086b57600080fd5b81600260008373ffffffffffffffffffffffffffffffffffffffff1673ffffffffffffffffffffffffffffffffffffffff16815260200190815260200160002060006101000a81548173ffffffffffffffffffffffffffffffffffffffff021916908373ffffffffffffffffffffffffffffffffffffffff1602179055505050565b6000809054906101000a900473ffffffffffffffffffffffffffffffffffffffff1673ffffffffffffffffffffffffffffffffffffffff163373ffffffffffffffffffffffffffffffffffffffff1614151561094857600080fd5b600073ffffffffffffffffffffffffffffffffffffffff168173ffffffffffffffffffffffffffffffffffffffff161415151561098457600080fd5b8073ffffffffffffffffffffffffffffffffffffffff166000809054906101000a900473ffffffffffffffffffffffffffffffffffffffff1673ffffffffffffffffffffffffffffffffffffffff167f8be0079c531659141344cd1fd0a4f28419497f9722a3daafe3b4186f6b6457e060405160405180910390a3806000806101000a81548173ffffffffffffffffffffffffffffffffffffffff021916908373ffffffffffffffffffffffffffffffffffffffff16021790555050565b3373ffffffffffffffffffffffffffffffffffffffff168173ffffffffffffffffffffffffffffffffffffffff16638da5cb5b6040518163ffffffff167c0100000000000000000000000000000000000000000000000000000000028152600401602060405180830381600087803b158015610abd57600080fd5b505af1158015610ad1573d6000803e3d6000fd5b505050506040513d6020811015610ae757600080fd5b810190808051906020019092919050505073ffffffffffffffffffffffffffffffffffffffff16141515610b1a57600080fd5b81600160008373ffffffffffffffffffffffffffffffffffffffff1673ffffffffffffffffffffffffffffffffffffffff16815260200190815260200160002060006101000a81548173ffffffffffffffffffffffffffffffffffffffff021916908373ffffffffffffffffffffffffffffffffffffffff1602179055505050565b6000600160008373ffffffffffffffffffffffffffffffffffffffff1673ffffffffffffffffffffffffffffffffffffffff16815260200190815260200160002060009054906101000a900473ffffffffffffffffffffffffffffffffffffffff1673ffffffffffffffffffffffffffffffffffffffff1663eb4dd8f2846040518263ffffffff167c0100000000000000000000000000000000000000000000000000000000028152600401808273ffffffffffffffffffffffffffffffffffffffff1673ffffffffffffffffffffffffffffffffffffffff168152602001915050602060405180830381600087803b158015610c9857600080fd5b505af1158015610cac573d6000803e3d6000fd5b505050506040513d6020811015610cc257600080fd5b8101908080519060200190929190505050905092915050565b6000600260008373ffffffffffffffffffffffffffffffffffffffff1673ffffffffffffffffffffffffffffffffffffffff16815260200190815260200160002060009054906101000a900473ffffffffffffffffffffffffffffffffffffffff1673ffffffffffffffffffffffffffffffffffffffff1663eb4dd8f2846040518263ffffffff167c0100000000000000000000000000000000000000000000000000000000028152600401808273ffffffffffffffffffffffffffffffffffffffff1673ffffffffffffffffffffffffffffffffffffffff168152602001915050602060405180830381600087803b158015610dd757600080fd5b505af1158015610deb573d6000803e3d6000fd5b505050506040513d6020811015610e0157600080fd5b81019080805190602001909291905050509050929150505600a165627a7a72305820007ed0a3af49f0f4d0fcaad3b9f0cd4a9370aae826a6d8f84b4308b6c78f85a40029",
  "source": "pragma solidity ^0.4.10;\n\n\nimport './RegD506c.sol';\nimport './RegD506cToken.sol';\nimport './UserChecker.sol';\nimport './zeppelin-solidity/contracts/ownership/Ownable.sol';\n\n\n///\n/// @title Implementation of RegD506c\ncontract TheRegD506c is RegD506c, Ownable {\n\n  ///\n  /// Table of AML-KYC checking contracts\n  mapping(address => address) amlkycChecker;\n\n  ///\n  /// Table of accredited investor status checking contracts\n  mapping(address => address) accreditationChecker;\n\n  ///\n  /// Issuance dates for securities restricted by this contract\n  mapping(address => uint256) issuanceDate;\n\n  ///\n  /// Amount of time investors must hold the token before trading\n  uint256 holdingPeriod;\n\n  /// \n  /// Error codes\n  enum ErrorCode {\n    Ok,\n    HoldingPeriod,\n    ShareholderMaximum,\n    BuyerAMLKYC,\n    SellerAMLKYC,\n    Accreditation\n  }\n\n  ///\n  /// At deployment time the holding period can be set\n  function TheRegD506c(uint256 holdingPeriod_) Ownable() public {\n    holdingPeriod = holdingPeriod_;\n  }\n\n\n  ///\n  /// Register a contract to confirm AML-KYC status\n  function registerAmlKycChecker(address _checker, address _token)\n    public\n  {\n    require(Ownable(_token).owner() == msg.sender);\n    amlkycChecker[_token] = _checker;\n  }\n\n  ///\n  /// Register a contract to confirm accreditation status\n  function registerAccreditationChecker(address _checker, address _token)\n    public\n  {\n    require(Ownable(_token).owner() == msg.sender);\n    accreditationChecker[_token] = _checker;\n  }\n\n  ///\n  /// Set the start date for the holding period \n  function startHoldingPeriod() public {\n    if (issuanceDate[msg.sender] == 0)\n      issuanceDate[msg.sender] = now;\n  }\n\n  ///\n  /// Test whether or not a token transfer is compliant\n  function test(address _from, address _to, uint256 _value, address _token) \n    external \n    returns (uint16) \n  {\n\n    // The security cannot be transfered until after its holding period \n    if (issuanceDate[_token] != 0 && now < issuanceDate[_token] + holdingPeriod)\n      return uint16(ErrorCode.HoldingPeriod);\n\n    // Shareholder limits\n    // 99 if the security is raising money for a fund and 2000 otherwise\n    uint16 newShareholderCount = RegD506cToken(_token).shareholderCountAfter(_from, _to, _value);\n    if ((RegD506cToken(_token).isFund() && newShareholderCount > 99) \n      || newShareholderCount > 2000)\n      return uint16(ErrorCode.ShareholderMaximum);\n\n    // The seller must pass AMLKYC \n    if (!amlkyc(_from, _token))\n      return uint16(ErrorCode.SellerAMLKYC);\n    \n    // The buyer must pass AMLKYC\n    if (!amlkyc(_to, _token))\n      return uint16(ErrorCode.BuyerAMLKYC);\n\n    // The buyer must be an accredited investor \n    if (!accreditation(_to, _token))\n      return uint16(ErrorCode.Accreditation);\n\n    // All checks passed\n    return uint16(ErrorCode.Ok);\n\n  }\n\n  /// \n  /// Confirm AML-KYC status with the registered checker\n  function amlkyc(address _user, address _token) \n    internal\n    returns (bool) \n  {\n    return UserChecker(amlkycChecker[_token]).confirm(_user);\n  }\n\n  ///\n  /// Confirm accredited investor status with the associated checker\n  function accreditation(address _user, address _token)\n    internal\n    returns (bool)\n  {\n    return UserChecker(accreditationChecker[_token]).confirm(_user);\n  }\n\n}\n",
  "sourcePath": "/home/ubuntu/tokenDemo2/contracts/TheRegD506c.sol",
  "compiler": {
    "name": "solc",
    "version": "0.4.23+commit.124ca40d.Emscripten.clang"
  },
  "schemaVersion": "2.0.0",
  "updatedAt": "2018-06-04T21:56:14.359Z"
}