{
  "contractName": "cryptoBank",
  "abi": [
    {
      "inputs": [],
      "payable": false,
      "stateMutability": "nonpayable",
      "type": "constructor"
    },
    {
      "constant": true,
      "inputs": [],
      "name": "getInfo",
      "outputs": [
        {
          "name": "",
          "type": "uint256"
        }
      ],
      "payable": false,
      "stateMutability": "view",
      "type": "function"
    },
    {
      "constant": false,
      "inputs": [],
      "name": "depositFunds",
      "outputs": [
        {
          "name": "_fundsDeposited",
          "type": "uint256"
        }
      ],
      "payable": true,
      "stateMutability": "payable",
      "type": "function"
    },
    {
      "constant": false,
      "inputs": [],
      "name": "withdrawFunds",
      "outputs": [],
      "payable": true,
      "stateMutability": "payable",
      "type": "function"
    }
  ],
  "bytecode": "0x608060405234801561001057600080fd5b50610260806100206000396000f300608060405260043610610057576000357c0100000000000000000000000000000000000000000000000000000000900463ffffffff16806324600fc31461005c5780635a9b0b8914610066578063e2c41dbc14610091575b600080fd5b6100646100af565b005b34801561007257600080fd5b5061007b610186565b6040518082815260200191505060405180910390f35b6100996101cf565b6040518082815260200191505060405180910390f35b60008060003373ffffffffffffffffffffffffffffffffffffffff1673ffffffffffffffffffffffffffffffffffffffff16815260200190815260200160002060000154905060008060003373ffffffffffffffffffffffffffffffffffffffff1673ffffffffffffffffffffffffffffffffffffffff168152602001908152602001600020600001819055503373ffffffffffffffffffffffffffffffffffffffff166108fc829081150290604051600060405180830381858888f19350505050158015610182573d6000803e3d6000fd5b5050565b60008060003373ffffffffffffffffffffffffffffffffffffffff1673ffffffffffffffffffffffffffffffffffffffff16815260200190815260200160002060000154905090565b600080341115156101df57600080fd5b346000803373ffffffffffffffffffffffffffffffffffffffff1673ffffffffffffffffffffffffffffffffffffffff16815260200190815260200160002060000160008282540192505081905550349050905600a165627a7a72305820da3dbabbbf987536392afe197e0ed138d46693ca68d4c4682eb89550ea4352e70029",
  "source": "pragma solidity ^0.4.24;\n\ncontract cryptoBank {\n\n    struct Holder {\n    uint fundsDeposited;\n    }\n\n    mapping (address => Holder) holders;\n\n    function cryptoBank() public {\n    }\n\n    function getInfo() constant returns(uint){\n        return holders[msg.sender].fundsDeposited;\n    }\n\n    function depositFunds() payable returns (uint _fundsDeposited){\n        //requires Ether to be sent\n\n        require(msg.value > 0);\n        //increments value in case holder deposits more than once, but won't update the original withdrawTime in case caller wants to change the 'future withdrawTime' to a much closer time but still future time\n        holders[msg.sender].fundsDeposited += msg.value;\n        return msg.value;\n    }\n\n    function withdrawFunds() payable {\n\n        uint funds = holders[msg.sender].fundsDeposited; // separates the funds into a separate variable, so user can still withdraw after the struct is updated\n\n        holders[msg.sender].fundsDeposited = 0; // adjusts recorded eth deposit before funds are returned\n        msg.sender.transfer(funds); //sends ether to msg.sender if they have funds held\n    }\n}",
  "sourcePath": "/Users/ericzhang/Downloads/cryptoBank/contracts/cryptoBank.sol",
  "compiler": {
    "name": "solc",
    "version": "0.4.24+commit.e67f0147.Emscripten.clang"
  },
  "schemaVersion": "2.0.0",
  "updatedAt": "2018-06-25T21:30:44.184Z"
}