{
  "contractName": "Dice2Win",
  "abi": [
    {
      "constant": true,
      "inputs": [],
      "name": "maxBetCoinDice",
      "outputs": [
        {
          "name": "",
          "type": "uint256"
        }
      ],
      "payable": false,
      "stateMutability": "view",
      "type": "function"
    },
    {
      "constant": true,
      "inputs": [],
      "name": "jackpotSize",
      "outputs": [
        {
          "name": "",
          "type": "uint128"
        }
      ],
      "payable": false,
      "stateMutability": "view",
      "type": "function"
    },
    {
      "constant": true,
      "inputs": [],
      "name": "nextOwner",
      "outputs": [
        {
          "name": "",
          "type": "address"
        }
      ],
      "payable": false,
      "stateMutability": "view",
      "type": "function"
    },
    {
      "constant": true,
      "inputs": [],
      "name": "owner",
      "outputs": [
        {
          "name": "",
          "type": "address"
        }
      ],
      "payable": false,
      "stateMutability": "view",
      "type": "function"
    },
    {
      "constant": true,
      "inputs": [],
      "name": "maxBetDoubleDice",
      "outputs": [
        {
          "name": "",
          "type": "uint256"
        }
      ],
      "payable": false,
      "stateMutability": "view",
      "type": "function"
    },
    {
      "constant": true,
      "inputs": [],
      "name": "lockedInBets",
      "outputs": [
        {
          "name": "",
          "type": "uint128"
        }
      ],
      "payable": false,
      "stateMutability": "view",
      "type": "function"
    },
    {
      "inputs": [],
      "payable": false,
      "stateMutability": "nonpayable",
      "type": "constructor"
    },
    {
      "payable": true,
      "stateMutability": "payable",
      "type": "fallback"
    },
    {
      "anonymous": false,
      "inputs": [
        {
          "indexed": true,
          "name": "_beneficiary",
          "type": "address"
        },
        {
          "indexed": false,
          "name": "amount",
          "type": "uint256"
        }
      ],
      "name": "FailedPayment",
      "type": "event"
    },
    {
      "anonymous": false,
      "inputs": [
        {
          "indexed": true,
          "name": "_beneficiary",
          "type": "address"
        },
        {
          "indexed": false,
          "name": "amount",
          "type": "uint256"
        }
      ],
      "name": "Payment",
      "type": "event"
    },
    {
      "anonymous": false,
      "inputs": [
        {
          "indexed": true,
          "name": "_beneficiary",
          "type": "address"
        },
        {
          "indexed": false,
          "name": "amount",
          "type": "uint256"
        }
      ],
      "name": "JackpotPayment",
      "type": "event"
    },
    {
      "constant": false,
      "inputs": [
        {
          "name": "_nextOwner",
          "type": "address"
        }
      ],
      "name": "approveNextOwner",
      "outputs": [],
      "payable": false,
      "stateMutability": "nonpayable",
      "type": "function"
    },
    {
      "constant": false,
      "inputs": [],
      "name": "acceptNextOwner",
      "outputs": [],
      "payable": false,
      "stateMutability": "nonpayable",
      "type": "function"
    },
    {
      "constant": false,
      "inputs": [],
      "name": "kill",
      "outputs": [],
      "payable": false,
      "stateMutability": "nonpayable",
      "type": "function"
    },
    {
      "constant": false,
      "inputs": [
        {
          "name": "newMaxBetCoinDice",
          "type": "uint256"
        }
      ],
      "name": "changeMaxBetCoinDice",
      "outputs": [],
      "payable": false,
      "stateMutability": "nonpayable",
      "type": "function"
    },
    {
      "constant": false,
      "inputs": [
        {
          "name": "newMaxBetDoubleDice",
          "type": "uint256"
        }
      ],
      "name": "changeMaxBetDoubleDice",
      "outputs": [],
      "payable": false,
      "stateMutability": "nonpayable",
      "type": "function"
    },
    {
      "constant": false,
      "inputs": [
        {
          "name": "increaseAmount",
          "type": "uint256"
        }
      ],
      "name": "increaseJackpot",
      "outputs": [],
      "payable": false,
      "stateMutability": "nonpayable",
      "type": "function"
    },
    {
      "constant": false,
      "inputs": [
        {
          "name": "beneficiary",
          "type": "address"
        },
        {
          "name": "withdrawAmount",
          "type": "uint256"
        }
      ],
      "name": "withdrawFunds",
      "outputs": [],
      "payable": false,
      "stateMutability": "nonpayable",
      "type": "function"
    },
    {
      "constant": false,
      "inputs": [
        {
          "name": "gameId",
          "type": "uint8"
        },
        {
          "name": "betMask",
          "type": "uint256"
        }
      ],
      "name": "placeBet",
      "outputs": [],
      "payable": true,
      "stateMutability": "payable",
      "type": "function"
    },
    {
      "constant": false,
      "inputs": [
        {
          "name": "gambler",
          "type": "address"
        }
      ],
      "name": "settleBet",
      "outputs": [],
      "payable": false,
      "stateMutability": "nonpayable",
      "type": "function"
    },
    {
      "constant": false,
      "inputs": [
        {
          "name": "gambler",
          "type": "address"
        }
      ],
      "name": "refundBet",
      "outputs": [],
      "payable": false,
      "stateMutability": "nonpayable",
      "type": "function"
    }
  ],
  "bytecode": "0x608060405234801561001057600080fd5b50336000806101000a81548173ffffffffffffffffffffffffffffffffffffffff021916908373ffffffffffffffffffffffffffffffffffffffff1602179055506117f0806100606000396000f3006080604052600436106100e6576000357c0100000000000000000000000000000000000000000000000000000000900463ffffffff16806309fb1668146100e85780632bec76fd146101155780632c69e64e1461014057806341c0e1b51461018357806357246d231461019a57806369f3331d146101e95780636d5f3e15146102405780638da5cb5b1461028357806397217085146102da578063c107532914610305578063cf62d4e314610352578063d06c54fb1461037f578063d579fd4414610396578063d6d30a51146103d9578063dcb3b30e14610406578063df88126f14610433575b005b3480156100f457600080fd5b5061011360048036038101908080359060200190929190505050610482565b005b34801561012157600080fd5b5061012a6104e7565b6040518082815260200191505060405180910390f35b34801561014c57600080fd5b50610181600480360381019080803573ffffffffffffffffffffffffffffffffffffffff1690602001909291905050506104ed565b005b34801561018f57600080fd5b5061019861077c565b005b3480156101a657600080fd5b506101af610850565b60405180826fffffffffffffffffffffffffffffffff166fffffffffffffffffffffffffffffffff16815260200191505060405180910390f35b3480156101f557600080fd5b506101fe610872565b604051808273ffffffffffffffffffffffffffffffffffffffff1673ffffffffffffffffffffffffffffffffffffffff16815260200191505060405180910390f35b34801561024c57600080fd5b50610281600480360381019080803573ffffffffffffffffffffffffffffffffffffffff169060200190929190505050610898565b005b34801561028f57600080fd5b50610298610d51565b604051808273ffffffffffffffffffffffffffffffffffffffff1673ffffffffffffffffffffffffffffffffffffffff16815260200191505060405180910390f35b3480156102e657600080fd5b506102ef610d76565b6040518082815260200191505060405180910390f35b34801561031157600080fd5b50610350600480360381019080803573ffffffffffffffffffffffffffffffffffffffff16906020019092919080359060200190929190505050610d7c565b005b34801561035e57600080fd5b5061037d60048036038101908080359060200190929190505050610e84565b005b34801561038b57600080fd5b50610394610ee9565b005b3480156103a257600080fd5b506103d7600480360381019080803573ffffffffffffffffffffffffffffffffffffffff169060200190929190505050610fa9565b005b3480156103e557600080fd5b50610404600480360381019080803590602001909291905050506110a4565b005b610431600480360381019080803560ff169060200190929190803590602001909291905050506111fa565b005b34801561043f57600080fd5b50610448611503565b60405180826fffffffffffffffffffffffffffffffff166fffffffffffffffffffffffffffffffff16815260200191505060405180910390f35b6000809054906101000a900473ffffffffffffffffffffffffffffffffffffffff1673ffffffffffffffffffffffffffffffffffffffff163373ffffffffffffffffffffffffffffffffffffffff161415156104dd57600080fd5b8060028190555050565b60025481565b600080600080600560008673ffffffffffffffffffffffffffffffffffffffff1673ffffffffffffffffffffffffffffffffffffffff168152602001908152602001600020935060008460000160109054906101000a90046fffffffffffffffffffffffffffffffff166fffffffffffffffffffffffffffffffff161415151561057657600080fd5b60648460000160019054906101000a900466ffffffffffffff1666ffffffffffffff1601431115156105a757600080fd5b6105c18460000160009054906101000a900460ff16611525565b92506105ef838560000160089054906101000a900467ffffffffffffffff1667ffffffffffffffff166115a4565b915061062e8460000160109054906101000a90046fffffffffffffffffffffffffffffffff166fffffffffffffffffffffffffffffffff1684846115f3565b600460108282829054906101000a90046fffffffffffffffffffffffffffffffff160392506101000a8154816fffffffffffffffffffffffffffffffff02191690836fffffffffffffffffffffffffffffffff1602179055508360000160109054906101000a90046fffffffffffffffffffffffffffffffff166fffffffffffffffffffffffffffffffff169050600560008673ffffffffffffffffffffffffffffffffffffffff1673ffffffffffffffffffffffffffffffffffffffff168152602001908152602001600020600080820160006101000a81549060ff02191690556000820160016101000a81549066ffffffffffffff02191690556000820160086101000a81549067ffffffffffffffff02191690556000820160106101000a8154906fffffffffffffffffffffffffffffffff02191690555050610775858283611639565b5050505050565b6000809054906101000a900473ffffffffffffffffffffffffffffffffffffffff1673ffffffffffffffffffffffffffffffffffffffff163373ffffffffffffffffffffffffffffffffffffffff161415156107d757600080fd5b6000600460109054906101000a90046fffffffffffffffffffffffffffffffff166fffffffffffffffffffffffffffffffff1614151561081657600080fd5b6000809054906101000a900473ffffffffffffffffffffffffffffffffffffffff1673ffffffffffffffffffffffffffffffffffffffff16ff5b600460009054906101000a90046fffffffffffffffffffffffffffffffff1681565b600160009054906101000a900473ffffffffffffffffffffffffffffffffffffffff1681565b600080600080600080600080600080600560008c73ffffffffffffffffffffffffffffffffffffffff1673ffffffffffffffffffffffffffffffffffffffff168152602001908152602001600020995060008a60000160109054906101000a90046fffffffffffffffffffffffffffffffff166fffffffffffffffffffffffffffffffff161415151561092a57600080fd5b60028a60000160019054906101000a900466ffffffffffffff1666ffffffffffffff16014311151561095b57600080fd5b60648a60000160019054906101000a900466ffffffffffffff1666ffffffffffffff1601431115151561098d57600080fd5b8a60028b60000160019054906101000a900466ffffffffffffff1666ffffffffffffff160140604051808373ffffffffffffffffffffffffffffffffffffffff1673ffffffffffffffffffffffffffffffffffffffff166c01000000000000000000000000028152601401826000191660001916815260200192505050604051809103902098506000975060009650610a368a60000160009054906101000a900460ff16611525565b9550858960019004811515610a4757fe5b069450610a76868b60000160089054906101000a900467ffffffffffffffff1667ffffffffffffffff166115a4565b9350610ab58a60000160109054906101000a90046fffffffffffffffffffffffffffffffff166fffffffffffffffffffffffffffffffff1687866115f3565b925060008a60000160089054906101000a900467ffffffffffffffff1667ffffffffffffffff168660020a16141515610aec578297505b82600460108282829054906101000a90046fffffffffffffffffffffffffffffffff160392506101000a8154816fffffffffffffffffffffffffffffffff02191690836fffffffffffffffffffffffffffffffff16021790555067016345785d8a00008a60000160109054906101000a90046fffffffffffffffffffffffffffffffff166fffffffffffffffffffffffffffffffff16101515610c20576103e8868a60019004811515610b9b57fe5b04811515610ba557fe5b0691506000821415610c1f57600460009054906101000a90046fffffffffffffffffffffffffffffffff166fffffffffffffffffffffffffffffffff1696506000600460006101000a8154816fffffffffffffffffffffffffffffffff02191690836fffffffffffffffffffffffffffffffff1602179055505b5b600560008c73ffffffffffffffffffffffffffffffffffffffff1673ffffffffffffffffffffffffffffffffffffffff168152602001908152602001600020600080820160006101000a81549060ff02191690556000820160016101000a81549066ffffffffffffff02191690556000820160086101000a81549067ffffffffffffffff02191690556000820160106101000a8154906fffffffffffffffffffffffffffffffff0219169055505086880190506000811415610ce157600190505b6000871115610d39578a73ffffffffffffffffffffffffffffffffffffffff167fc388db0e8aa560a59633c094a0d0aa21322cd6234836fd5bac00fc5ae63b5783886040518082815260200191505060405180910390a25b610d448b828a611639565b5050505050505050505050565b6000809054906101000a900473ffffffffffffffffffffffffffffffffffffffff1681565b60035481565b6000809054906101000a900473ffffffffffffffffffffffffffffffffffffffff1673ffffffffffffffffffffffffffffffffffffffff163373ffffffffffffffffffffffffffffffffffffffff16141515610dd757600080fd5b3073ffffffffffffffffffffffffffffffffffffffff16318111151515610dfd57600080fd5b3073ffffffffffffffffffffffffffffffffffffffff163181600460109054906101000a90046fffffffffffffffffffffffffffffffff16600460009054906101000a90046fffffffffffffffffffffffffffffffff16016fffffffffffffffffffffffffffffffff160111151515610e7557600080fd5b610e80828283611639565b5050565b6000809054906101000a900473ffffffffffffffffffffffffffffffffffffffff1673ffffffffffffffffffffffffffffffffffffffff163373ffffffffffffffffffffffffffffffffffffffff16141515610edf57600080fd5b8060038190555050565b600160009054906101000a900473ffffffffffffffffffffffffffffffffffffffff1673ffffffffffffffffffffffffffffffffffffffff163373ffffffffffffffffffffffffffffffffffffffff16141515610f4557600080fd5b600160009054906101000a900473ffffffffffffffffffffffffffffffffffffffff166000806101000a81548173ffffffffffffffffffffffffffffffffffffffff021916908373ffffffffffffffffffffffffffffffffffffffff160217905550565b6000809054906101000a900473ffffffffffffffffffffffffffffffffffffffff1673ffffffffffffffffffffffffffffffffffffffff163373ffffffffffffffffffffffffffffffffffffffff1614151561100457600080fd5b6000809054906101000a900473ffffffffffffffffffffffffffffffffffffffff1673ffffffffffffffffffffffffffffffffffffffff168173ffffffffffffffffffffffffffffffffffffffff161415151561106057600080fd5b80600160006101000a81548173ffffffffffffffffffffffffffffffffffffffff021916908373ffffffffffffffffffffffffffffffffffffffff16021790555050565b6000809054906101000a900473ffffffffffffffffffffffffffffffffffffffff1673ffffffffffffffffffffffffffffffffffffffff163373ffffffffffffffffffffffffffffffffffffffff161415156110ff57600080fd5b3073ffffffffffffffffffffffffffffffffffffffff1631811115151561112557600080fd5b3073ffffffffffffffffffffffffffffffffffffffff163181600460109054906101000a90046fffffffffffffffffffffffffffffffff16600460009054906101000a90046fffffffffffffffffffffffffffffffff16016fffffffffffffffffffffffffffffffff16011115151561119d57600080fd5b80600460008282829054906101000a90046fffffffffffffffffffffffffffffffff160192506101000a8154816fffffffffffffffffffffffffffffffff02191690836fffffffffffffffffffffffffffffffff16021790555050565b6000806000806000600560003373ffffffffffffffffffffffffffffffffffffffff1673ffffffffffffffffffffffffffffffffffffffff168152602001908152602001600020945060008560000160109054906101000a90046fffffffffffffffffffffffffffffffff166fffffffffffffffffffffffffffffffff1614151561128457600080fd5b60038081111561129057fe5b87600381111561129c57fe5b1015156112a857600080fd5b66470de4df82000034101580156112c757506112c38761171a565b3411155b15156112d257600080fd5b68010000000000000000861015156112e957600080fd5b6112f287611525565b93506112fe84876115a4565b925061130b3485856115f3565b91506113163461179c565b90503073ffffffffffffffffffffffffffffffffffffffff16318183600460109054906101000a90046fffffffffffffffffffffffffffffffff16600460009054906101000a90046fffffffffffffffffffffffffffffffff16016fffffffffffffffffffffffffffffffff1601011115151561139257600080fd5b81600460108282829054906101000a90046fffffffffffffffffffffffffffffffff160192506101000a8154816fffffffffffffffffffffffffffffffff02191690836fffffffffffffffffffffffffffffffff16021790555080600460008282829054906101000a90046fffffffffffffffffffffffffffffffff160192506101000a8154816fffffffffffffffffffffffffffffffff02191690836fffffffffffffffffffffffffffffffff160217905550868560000160006101000a81548160ff0219169083600381111561146657fe5b0217905550438560000160016101000a81548166ffffffffffffff021916908366ffffffffffffff160217905550858560000160086101000a81548167ffffffffffffffff021916908367ffffffffffffffff160217905550348560000160106101000a8154816fffffffffffffffffffffffffffffffff02191690836fffffffffffffffffffffffffffffffff16021790555050505050505050565b600460109054906101000a90046fffffffffffffffffffffffffffffffff1681565b600080600381111561153357fe5b82600381111561153f57fe5b141561154e576002905061159f565b6001600381111561155b57fe5b82600381111561156757fe5b1415611576576006905061159f565b6002600381111561158357fe5b82600381111561158f57fe5b141561159e576024905061159f565b5b919050565b6000806000806000925060019150600090505b858110156115e75760008286161415156115d45782806001019350505b60028202915080806001019150506115b7565b82935050505092915050565b60008160001080156116055750828211155b151561161057600080fd5b606460026064038385870281151561162457fe5b040281151561162f57fe5b0490509392505050565b8273ffffffffffffffffffffffffffffffffffffffff166108fc839081150290604051600060405180830381858888f19350505050156116c6578273ffffffffffffffffffffffffffffffffffffffff167fd4f43975feb89f48dd30cabbb32011045be187d1e11c8ea9faa43efc35282519826040518082815260200191505060405180910390a2611715565b8273ffffffffffffffffffffffffffffffffffffffff167fac464fe4d3a86b9121261ac0a01dd981bfe0777c7c9d9c8f4473d31a9c0f9d2d836040518082815260200191505060405180910390a25b505050565b600080600381111561172857fe5b82600381111561173457fe5b1415611744576002549050611797565b6001600381111561175157fe5b82600381111561175d57fe5b141561176d576002549050611797565b6002600381111561177a57fe5b82600381111561178657fe5b1415611796576003549050611797565b5b919050565b6000606460326064600285028115156117b157fe5b04028115156117bc57fe5b0490509190505600a165627a7a72305820dc6b45814704e87cb696286b938ad432878e7c0e836ce7dfa1e64605d8a2543a0029",
  "source": "pragma solidity ^0.4.23;\n\ncontract Dice2Win {\n\n    /// Constants\n\n    // Chance to win jackpot - currently 0.1%\n    uint256 constant JACKPOT_MODULO = 1000;\n\n    // Each bet is deducted 2% amount - 1% is house edge, 1% goes to jackpot fund.\n    uint256 constant HOUSE_EDGE_PERCENT = 2;\n    uint256 constant JACKPOT_FEE_PERCENT = 50;\n\n    // Minimum supported bet is 0.02 ETH, made possible by optimizing gas costs\n    // compared to our competitors.\n    uint256 constant MIN_BET = 0.02 ether;\n\n    // Only bets higher that 0.1 ETH have a chance to win jackpot.\n    uint256 constant MIN_JACKPOT_BET = 0.1 ether;\n\n    // Random number generation is provided by the hashes of future blocks.\n    // Two blocks is a good compromise between responsive gameplay and safety from miner attacks.\n    uint256 constant BLOCK_DELAY = 2;\n\n    // Bets made more than 100 blocks ago are considered failed - this has to do\n    // with EVM limitations on block hashes that are queryable. Settlement failure\n    // is most probably due to croupier bot failure, if you ever end in this situation\n    // ask dice2.win support for a refund!\n    uint256 constant BET_EXPIRATION_BLOCKS = 100;\n\n    /// Contract storage.\n\n    // Changing ownership of the contract safely\n    address public owner;\n    address public nextOwner;\n\n    // Max bet limits for coin toss/single dice and double dice respectively.\n    // Setting these values to zero effectively disables the respective games.\n    uint256 public maxBetCoinDice;\n    uint256 public maxBetDoubleDice;\n\n    // Current jackpot size.\n    uint128 public jackpotSize;\n\n    // Amount locked in ongoing bets - this is to be sure that we do not commit to bets\n    // that we cannot fulfill in case of win.\n    uint128 public lockedInBets;\n\n    /// Enum representing games\n\n    enum GameId {\n        CoinFlip,\n        SingleDice,\n        DoubleDice,\n\n        MaxGameId\n    }\n\n    uint256 constant MAX_BLOCK_NUMBER = 2 ** 56;\n    uint256 constant MAX_BET_MASK = 2 ** 64;\n    uint256 constant MAX_AMOUNT = 2 ** 128;\n\n    // Struct is tightly packed into a single 256-bit by Solidity compiler.\n    // This is made to reduce gas costs of placing & settlement transactions.\n    struct ActiveBet {\n        // A game that was played.\n        GameId gameId;\n        // Block number in which bet transaction was mined.\n        uint56 placeBlockNumber;\n        // A binary mask with 1 for each option.\n        // For example, if you play dice, the mask ranges from 000001 in binary (betting on one)\n        // to 111111 in binary (betting on all dice outcomes at once).\n        uint64 mask;\n        // Bet amount in wei.\n        uint128 amount;\n    }\n\n    mapping (address => ActiveBet) activeBets;\n\n    // Events that are issued to make statistic recovery easier.\n    event FailedPayment(address indexed _beneficiary, uint256 amount);\n    event Payment(address indexed _beneficiary, uint256 amount);\n    event JackpotPayment(address indexed _beneficiary, uint256 amount);\n\n    /// Contract governance.\n\n    constructor () public {\n        owner = msg.sender;\n        // all fields are automatically initialized to zero, which is just what's needed.\n    }\n\n    modifier onlyOwner {\n        require (msg.sender == owner);\n        _;\n    }\n\n    // This is pretty standard ownership change routine.\n\n    function approveNextOwner(address _nextOwner) public onlyOwner {\n        require (_nextOwner != owner);\n        nextOwner = _nextOwner;\n    }\n\n    function acceptNextOwner() public {\n        require (msg.sender == nextOwner);\n        owner = nextOwner;\n    }\n\n    // Contract may be destroyed only when there are no ongoing bets,\n    // either settled or refunded. All funds are transferred to contract owner.\n\n    function kill() public onlyOwner {\n        require (lockedInBets == 0);\n        selfdestruct(owner);\n    }\n\n    // Fallback function deliberately left empty. It's primary use case\n    // is to top up the bank roll.\n    function () public payable {\n    }\n\n    // Helper routines to alter the respective max bet limits.\n    function changeMaxBetCoinDice(uint256 newMaxBetCoinDice) public onlyOwner {\n        maxBetCoinDice = newMaxBetCoinDice;\n    }\n\n    function changeMaxBetDoubleDice(uint256 newMaxBetDoubleDice) public onlyOwner {\n        maxBetDoubleDice = newMaxBetDoubleDice;\n    }\n\n    // Ability to top up jackpot faster than it's natural growth by house fees.\n    function increaseJackpot(uint256 increaseAmount) public onlyOwner {\n        require (increaseAmount <= address(this).balance);\n        require (jackpotSize + lockedInBets + increaseAmount <= address(this).balance);\n        jackpotSize += uint128(increaseAmount);\n    }\n\n    // Funds withdrawal to cover costs of dice2.win operation.\n    function withdrawFunds(address beneficiary, uint256 withdrawAmount) public onlyOwner {\n        require (withdrawAmount <= address(this).balance);\n        require (jackpotSize + lockedInBets + withdrawAmount <= address(this).balance);\n        sendFunds(beneficiary, withdrawAmount, withdrawAmount);\n    }\n\n    /// Betting logic\n\n    // Bet transaction - issued by player. Contains the desired game id and betting options\n    // mask. Wager is the value in ether attached to the transaction.\n    function placeBet(GameId gameId, uint256 betMask) public payable {\n        // Check that there is no ongoing bet already - we support one game at a time\n        // from single address.\n        ActiveBet storage bet = activeBets[msg.sender];\n        require (bet.amount == 0);\n\n        // Check that the values passed fit into respective limits.\n        require (gameId < GameId.MaxGameId);\n        require (msg.value >= MIN_BET && msg.value <= getMaxBet(gameId));\n        require (betMask < MAX_BET_MASK);\n\n        // Determine roll parameters.\n        uint256 rollModulo = getRollModulo(gameId);\n        uint256 rollUnder = getRollUnder(rollModulo, betMask);\n\n        // Check whether contract has enough funds to process this bet.\n        uint256 reservedAmount = getDiceWinAmount(msg.value, rollModulo, rollUnder);\n        uint256 jackpotFee = getJackpotFee(msg.value);\n        require (jackpotSize + lockedInBets + reservedAmount + jackpotFee <= address(this).balance);\n\n        // Update reserved amounts.\n        lockedInBets += uint128(reservedAmount);\n        jackpotSize += uint128(jackpotFee);\n\n        // Store the bet parameters on blockchain.\n        bet.gameId = gameId;\n        bet.placeBlockNumber = uint56(block.number);\n        bet.mask = uint64(betMask);\n        bet.amount = uint128(msg.value);\n    }\n\n    // Settlement transaction - can be issued by anyone, but is designed to be handled by the\n    // dice2.win croupier bot. However nothing prevents you from issuing it yourself, or anyone\n    // issuing the settlement transaction on your behalf - that does not affect the bet outcome and\n    // is in fact encouraged in the case the croupier bot malfunctions.\n    function settleBet(address gambler) public {\n        // Check that there is already a bet for this gambler.\n        ActiveBet storage bet = activeBets[gambler];\n        require (bet.amount != 0);\n\n        // Check that the bet is neither too early nor too late.\n        require (block.number > bet.placeBlockNumber + BLOCK_DELAY);\n        require (block.number <= bet.placeBlockNumber + BET_EXPIRATION_BLOCKS);\n\n        // The RNG - use hash of the block that is unknown at the time of placing the bet,\n        // SHA3 it with gambler address. The latter step is required to make the outcomes of\n        // different settlement transactions mined into the same block different.\n        bytes32 entropy = keccak256(gambler, blockhash(bet.placeBlockNumber + BLOCK_DELAY));\n\n        uint256 diceWin = 0;\n        uint256 jackpotWin = 0;\n\n        // Determine roll parameters, do a roll by taking a modulo of entropy.\n        uint256 rollModulo = getRollModulo(bet.gameId);\n        uint256 dice = uint256(entropy) % rollModulo;\n\n        uint256 rollUnder = getRollUnder(rollModulo, bet.mask);\n        uint256 diceWinAmount = getDiceWinAmount(bet.amount, rollModulo, rollUnder);\n\n        // Check the roll result against the bet bit mask.\n        if ((2 ** dice) & bet.mask != 0) {\n            diceWin = diceWinAmount;\n        }\n\n        // Unlock the bet amount, regardless of the outcome.\n        lockedInBets -= uint128(diceWinAmount);\n\n        // Roll for a jackpot (if eligible).\n        if (bet.amount >= MIN_JACKPOT_BET) {\n            // The second modulo, statistically independent from the \"main\" dice roll.\n            // Effectively you are playing two games at once!\n            uint256 jackpotRng = (uint256(entropy) / rollModulo) % JACKPOT_MODULO;\n\n            // Bingo!\n            if (jackpotRng == 0) {\n                jackpotWin = jackpotSize;\n                jackpotSize = 0;\n            }\n        }\n\n        // Remove the processed bet from blockchain storage.\n        delete activeBets[gambler];\n\n        // Tally up the win.\n        uint256 totalWin = diceWin + jackpotWin;\n\n        if (totalWin == 0) {\n            totalWin = 1 wei;\n        }\n\n        if (jackpotWin > 0) {\n            emit JackpotPayment(gambler, jackpotWin);\n        }\n\n        // Send the funds to gambler.\n        sendFunds(gambler, totalWin, diceWin);\n    }\n\n    // Refund transaction - return the bet amount of a roll that was not processed\n    // in due timeframe (100 Ethereum blocks). Processing such bets is not possible,\n    // because EVM does not have access to the hashes further than 256 blocks ago.\n    //\n    // Like settlement, this transaction may be issued by anyone, but if you ever\n    // find yourself in situation like this, just contact the dice2.win support!\n    function refundBet(address gambler) public {\n        // Check that there is already a bet for this gambler.\n        ActiveBet storage bet = activeBets[gambler];\n        require (bet.amount != 0);\n\n        // The bet should be indeed late.\n        require (block.number > bet.placeBlockNumber + BET_EXPIRATION_BLOCKS);\n\n        // Determine roll parameters to calculate correct amount of funds locked.\n        uint256 rollModulo = getRollModulo(bet.gameId);\n        uint256 rollUnder = getRollUnder(rollModulo, bet.mask);\n\n        lockedInBets -= uint128(getDiceWinAmount(bet.amount, rollModulo, rollUnder));\n\n        // Delete the bet from the blockchain.\n        uint256 refundAmount = bet.amount;\n        delete activeBets[gambler];\n\n        // Refund the bet.\n        sendFunds(gambler, refundAmount, refundAmount);\n    }\n\n    /// Helper routines.\n\n    // Number of bet options for specific game.\n    function getRollModulo(GameId gameId) pure private returns (uint256) {\n        if (gameId == GameId.CoinFlip) {\n            // Heads/tails\n            return 2;\n\n        } else if (gameId == GameId.SingleDice) {\n            // One through six.\n            return 6;\n\n        } else if (gameId == GameId.DoubleDice) {\n            // 6*6=36 possible outcomes.\n            return 36;\n\n        }\n    }\n\n    // Max bet amount for a specific game.\n    function getMaxBet(GameId gameId) view private returns (uint256) {\n        if (gameId == GameId.CoinFlip) {\n            return maxBetCoinDice;\n\n        } else if (gameId == GameId.SingleDice) {\n            return maxBetCoinDice;\n\n        } else if (gameId == GameId.DoubleDice) {\n            return maxBetDoubleDice;\n\n        }\n    }\n\n    // Count 1 bits in the bet bit mask to find the total number of bet options\n    function getRollUnder(uint256 rollModulo, uint256 betMask) pure private returns (uint256) {\n        uint256 rollUnder = 0;\n        uint256 singleBitMask = 1;\n        for (uint256 shift = 0; shift < rollModulo; shift++) {\n            if (betMask & singleBitMask != 0) {\n                rollUnder++;\n            }\n\n            singleBitMask *= 2;\n        }\n\n        return rollUnder;\n    }\n\n    // Get the expected win amount after house edge is subtracted.\n    function getDiceWinAmount(uint256 amount, uint256 rollModulo, uint256 rollUnder) pure private\n      returns (uint256) {\n        require (0 < rollUnder && rollUnder <= rollModulo);\n        return amount * rollModulo / rollUnder * (100 - HOUSE_EDGE_PERCENT) / 100;\n    }\n\n    // Get the portion of bet amount that is to be accumulated in the jackpot.\n    function getJackpotFee(uint256 amount) pure private returns (uint256) {\n        return amount * HOUSE_EDGE_PERCENT / 100 * JACKPOT_FEE_PERCENT / 100;\n    }\n\n    // Helper routine to process the payment.\n    function sendFunds(address beneficiary, uint256 amount, uint256 successLogAmount) private {\n        if (beneficiary.send(amount)) {\n            emit Payment(beneficiary, successLogAmount);\n        } else {\n            emit FailedPayment(beneficiary, amount);\n        }\n    }\n\n}",
  "sourcePath": "/Users/ericzhang/Downloads/Dice2Win/contracts/Dice2Win.sol",
  "compiler": {
    "name": "solc",
    "version": "0.4.24+commit.e67f0147.Emscripten.clang"
  },
  "schemaVersion": "2.0.0",
  "updatedAt": "2018-06-25T21:39:23.111Z"
}