{
  "contractName": "ericoin",
  "abi": [
    {
      "inputs": [
        {
          "name": "_initialSupply",
          "type": "uint256"
        }
      ],
      "payable": false,
      "stateMutability": "nonpayable",
      "type": "constructor"
    },
    {
      "constant": false,
      "inputs": [],
      "name": "totalSupply",
      "outputs": [
        {
          "name": "",
          "type": "uint256"
        }
      ],
      "payable": false,
      "stateMutability": "nonpayable",
      "type": "function"
    }
  ],
  "bytecode": "0x608060405234801561001057600080fd5b506040516020806100ea83398101806040528101908080519060200190929190505050806000819055505060a1806100496000396000f300608060405260043610603f576000357c0100000000000000000000000000000000000000000000000000000000900463ffffffff16806318160ddd146044575b600080fd5b348015604f57600080fd5b506056606c565b6040518082815260200191505060405180910390f35b600080549050905600a165627a7a72305820a306c2c920a0271e1c6f8dc0314162fc15e69e2050f5b362a604d6cbd42332970029",
  "source": "pragma solidity ^0.4.24;\n\ncontract ericoin {\n\tuint256 public totalSupply;\n\n\tfunction ericoin(uint256 _initialSupply) public {\n\t\ttotalSupply = _initialSupply;\n\t}\n\n\tfunction totalSupply() public returns (uint256) {\n\t\treturn totalSupply;\n\t}\n}",
  "sourcePath": "/Users/ericzhang/Downloads/ericoin/contracts/ericoin.sol",
  "compiler": {
    "name": "solc",
    "version": "0.4.24+commit.e67f0147.Emscripten.clang"
  },
  "schemaVersion": "2.0.0",
  "updatedAt": "2018-06-14T20:12:49.496Z"
}